{"abi":[{"type":"constructor","inputs":[{"name":"_usdc","type":"address","internalType":"address"}],"stateMutability":"nonpayable"},{"type":"function","name":"BUILDER_CODE","inputs":[],"outputs":[{"name":"","type":"string","internalType":"string"}],"stateMutability":"view"},{"type":"function","name":"USDC","inputs":[],"outputs":[{"name":"","type":"address","internalType":"contract IERC20"}],"stateMutability":"view"},{"type":"function","name":"addMilestones","inputs":[{"name":"_contractId","type":"uint256","internalType":"uint256"},{"name":"_descriptions","type":"string[]","internalType":"string[]"},{"name":"_amounts","type":"uint256[]","internalType":"uint256[]"},{"name":"_deadlines","type":"uint256[]","internalType":"uint256[]"}],"outputs":[],"stateMutability":"nonpayable"},{"type":"function","name":"applications","inputs":[{"name":"","type":"uint256","internalType":"uint256"},{"name":"","type":"uint256","internalType":"uint256"}],"outputs":[{"name":"freelancer","type":"address","internalType":"address"},{"name":"coverNote","type":"string","internalType":"string"},{"name":"proposedRate","type":"uint256","internalType":"uint256"},{"name":"appliedAt","type":"uint256","internalType":"uint256"},{"name":"selected","type":"bool","internalType":"bool"}],"stateMutability":"view"},{"type":"function","name":"applyForJob","inputs":[{"name":"_contractId","type":"uint256","internalType":"uint256"},{"name":"_coverNote","type":"string","internalType":"string"},{"name":"_proposedRate","type":"uint256","internalType":"uint256"}],"outputs":[],"stateMutability":"nonpayable"},{"type":"function","name":"approveExtension","inputs":[{"name":"_contractId","type":"uint256","internalType":"uint256"}],"outputs":[],"stateMutability":"nonpayable"},{"type":"function","name":"cancelContract","inputs":[{"name":"_contractId","type":"uint256","internalType":"uint256"}],"outputs":[],"stateMutability":"nonpayable"},{"type":"function","name":"contractCount","inputs":[],"outputs":[{"name":"","type":"uint256","internalType":"uint256"}],"stateMutability":"view"},{"type":"function","name":"contracts","inputs":[{"name":"","type":"uint256","internalType":"uint256"}],"outputs":[{"name":"client","type":"address","internalType":"address"},{"name":"freelancer","type":"address","internalType":"address"},{"name":"title","type":"string","internalType":"string"},{"name":"description","type":"string","internalType":"string"},{"name":"deliverables","type":"string","internalType":"string"},{"name":"category","type":"string","internalType":"string"},{"name":"paymentType","type":"uint8","internalType":"enum WorkChainEscrow.PaymentType"},{"name":"contractType","type":"uint8","internalType":"enum WorkChainEscrow.ContractType"},{"name":"status","type":"uint8","internalType":"enum WorkChainEscrow.ContractStatus"},{"name":"totalAmount","type":"uint256","internalType":"uint256"},{"name":"createdAt","type":"uint256","internalType":"uint256"},{"name":"deadline","type":"uint256","internalType":"uint256"},{"name":"clientSigned","type":"bool","internalType":"bool"},{"name":"freelancerSigned","type":"bool","internalType":"bool"},{"name":"recurringAmount","type":"uint256","internalType":"uint256"},{"name":"recurringInterval","type":"uint256","internalType":"uint256"},{"name":"lastPaymentAt","type":"uint256","internalType":"uint256"},{"name":"recurringCount","type":"uint256","internalType":"uint256"},{"name":"recurringPaid","type":"uint256","internalType":"uint256"},{"name":"extensionRequestedBy","type":"uint256","internalType":"uint256"},{"name":"proposedDeadline","type":"uint256","internalType":"uint256"}],"stateMutability":"view"},{"type":"function","name":"getApplicationCount","inputs":[{"name":"_contractId","type":"uint256","internalType":"uint256"}],"outputs":[{"name":"","type":"uint256","internalType":"uint256"}],"stateMutability":"view"},{"type":"function","name":"getApplications","inputs":[{"name":"_contractId","type":"uint256","internalType":"uint256"}],"outputs":[{"name":"","type":"tuple[]","internalType":"struct WorkChainEscrow.Application[]","components":[{"name":"freelancer","type":"address","internalType":"address"},{"name":"coverNote","type":"string","internalType":"string"},{"name":"proposedRate","type":"uint256","internalType":"uint256"},{"name":"appliedAt","type":"uint256","internalType":"uint256"},{"name":"selected","type":"bool","internalType":"bool"}]}],"stateMutability":"view"},{"type":"function","name":"getContract","inputs":[{"name":"_contractId","type":"uint256","internalType":"uint256"}],"outputs":[{"name":"","type":"tuple","internalType":"struct WorkChainEscrow.WorkContract","components":[{"name":"client","type":"address","internalType":"address"},{"name":"freelancer","type":"address","internalType":"address"},{"name":"title","type":"string","internalType":"string"},{"name":"description","type":"string","internalType":"string"},{"name":"deliverables","type":"string","internalType":"string"},{"name":"category","type":"string","internalType":"string"},{"name":"paymentType","type":"uint8","internalType":"enum WorkChainEscrow.PaymentType"},{"name":"contractType","type":"uint8","internalType":"enum WorkChainEscrow.ContractType"},{"name":"status","type":"uint8","internalType":"enum WorkChainEscrow.ContractStatus"},{"name":"totalAmount","type":"uint256","internalType":"uint256"},{"name":"createdAt","type":"uint256","internalType":"uint256"},{"name":"deadline","type":"uint256","internalType":"uint256"},{"name":"clientSigned","type":"bool","internalType":"bool"},{"name":"freelancerSigned","type":"bool","internalType":"bool"},{"name":"recurringAmount","type":"uint256","internalType":"uint256"},{"name":"recurringInterval","type":"uint256","internalType":"uint256"},{"name":"lastPaymentAt","type":"uint256","internalType":"uint256"},{"name":"recurringCount","type":"uint256","internalType":"uint256"},{"name":"recurringPaid","type":"uint256","internalType":"uint256"},{"name":"extensionRequestedBy","type":"uint256","internalType":"uint256"},{"name":"proposedDeadline","type":"uint256","internalType":"uint256"}]}],"stateMutability":"view"},{"type":"function","name":"getMilestones","inputs":[{"name":"_contractId","type":"uint256","internalType":"uint256"}],"outputs":[{"name":"","type":"tuple[]","internalType":"struct WorkChainEscrow.Milestone[]","components":[{"name":"description","type":"string","internalType":"string"},{"name":"amount","type":"uint256","internalType":"uint256"},{"name":"deadline","type":"uint256","internalType":"uint256"},{"name":"released","type":"bool","internalType":"bool"},{"name":"disputed","type":"bool","internalType":"bool"}]}],"stateMutability":"view"},{"type":"function","name":"markExpired","inputs":[{"name":"_contractId","type":"uint256","internalType":"uint256"}],"outputs":[],"stateMutability":"nonpayable"},{"type":"function","name":"milestones","inputs":[{"name":"","type":"uint256","internalType":"uint256"},{"name":"","type":"uint256","internalType":"uint256"}],"outputs":[{"name":"description","type":"string","internalType":"string"},{"name":"amount","type":"uint256","internalType":"uint256"},{"name":"deadline","type":"uint256","internalType":"uint256"},{"name":"released","type":"bool","internalType":"bool"},{"name":"disputed","type":"bool","internalType":"bool"}],"stateMutability":"view"},{"type":"function","name":"postOpenJob","inputs":[{"name":"_title","type":"string","internalType":"string"},{"name":"_description","type":"string","internalType":"string"},{"name":"_deliverables","type":"string","internalType":"string"},{"name":"_category","type":"string","internalType":"string"},{"name":"_paymentType","type":"uint8","internalType":"enum WorkChainEscrow.PaymentType"},{"name":"_totalAmount","type":"uint256","internalType":"uint256"},{"name":"_deadline","type":"uint256","internalType":"uint256"},{"name":"_recurringAmount","type":"uint256","internalType":"uint256"},{"name":"_recurringInterval","type":"uint256","internalType":"uint256"},{"name":"_recurringCount","type":"uint256","internalType":"uint256"}],"outputs":[{"name":"","type":"uint256","internalType":"uint256"}],"stateMutability":"nonpayable"},{"type":"function","name":"proposeDirectContract","inputs":[{"name":"_freelancer","type":"address","internalType":"address"},{"name":"_title","type":"string","internalType":"string"},{"name":"_description","type":"string","internalType":"string"},{"name":"_deliverables","type":"string","internalType":"string"},{"name":"_category","type":"string","internalType":"string"},{"name":"_paymentType","type":"uint8","internalType":"enum WorkChainEscrow.PaymentType"},{"name":"_totalAmount","type":"uint256","internalType":"uint256"},{"name":"_deadline","type":"uint256","internalType":"uint256"},{"name":"_recurringAmount","type":"uint256","internalType":"uint256"},{"name":"_recurringInterval","type":"uint256","internalType":"uint256"},{"name":"_recurringCount","type":"uint256","internalType":"uint256"}],"outputs":[{"name":"","type":"uint256","internalType":"uint256"}],"stateMutability":"nonpayable"},{"type":"function","name":"raiseDispute","inputs":[{"name":"_contractId","type":"uint256","internalType":"uint256"}],"outputs":[],"stateMutability":"nonpayable"},{"type":"function","name":"releaseMilestone","inputs":[{"name":"_contractId","type":"uint256","internalType":"uint256"},{"name":"_milestoneIndex","type":"uint256","internalType":"uint256"}],"outputs":[],"stateMutability":"nonpayable"},{"type":"function","name":"releaseRecurringPayment","inputs":[{"name":"_contractId","type":"uint256","internalType":"uint256"}],"outputs":[],"stateMutability":"nonpayable"},{"type":"function","name":"requestExtension","inputs":[{"name":"_contractId","type":"uint256","internalType":"uint256"},{"name":"_newDeadline","type":"uint256","internalType":"uint256"}],"outputs":[],"stateMutability":"nonpayable"},{"type":"function","name":"resolveDispute","inputs":[{"name":"_contractId","type":"uint256","internalType":"uint256"},{"name":"_winner","type":"address","internalType":"address"},{"name":"_amount","type":"uint256","internalType":"uint256"}],"outputs":[],"stateMutability":"nonpayable"},{"type":"function","name":"selectFreelancer","inputs":[{"name":"_contractId","type":"uint256","internalType":"uint256"},{"name":"_freelancer","type":"address","internalType":"address"}],"outputs":[],"stateMutability":"nonpayable"},{"type":"function","name":"signAndActivate","inputs":[{"name":"_contractId","type":"uint256","internalType":"uint256"}],"outputs":[],"stateMutability":"nonpayable"},{"type":"event","name":"ApplicationSubmitted","inputs":[{"name":"contractId","type":"uint256","indexed":true,"internalType":"uint256"},{"name":"freelancer","type":"address","indexed":true,"internalType":"address"}],"anonymous":false},{"type":"event","name":"ContractActivated","inputs":[{"name":"contractId","type":"uint256","indexed":true,"internalType":"uint256"}],"anonymous":false},{"type":"event","name":"ContractCancelled","inputs":[{"name":"contractId","type":"uint256","indexed":true,"internalType":"uint256"}],"anonymous":false},{"type":"event","name":"ContractDisputed","inputs":[{"name":"contractId","type":"uint256","indexed":true,"internalType":"uint256"}],"anonymous":false},{"type":"event","name":"ContractExpired","inputs":[{"name":"contractId","type":"uint256","indexed":true,"internalType":"uint256"}],"anonymous":false},{"type":"event","name":"ContractProposed","inputs":[{"name":"contractId","type":"uint256","indexed":true,"internalType":"uint256"},{"name":"client","type":"address","indexed":true,"internalType":"address"},{"name":"title","type":"string","indexed":false,"internalType":"string"},{"name":"contractType","type":"uint8","indexed":false,"internalType":"uint8"}],"anonymous":false},{"type":"event","name":"ContractResolved","inputs":[{"name":"contractId","type":"uint256","indexed":true,"internalType":"uint256"},{"name":"winner","type":"address","indexed":false,"internalType":"address"},{"name":"amount","type":"uint256","indexed":false,"internalType":"uint256"}],"anonymous":false},{"type":"event","name":"ExtensionApproved","inputs":[{"name":"contractId","type":"uint256","indexed":true,"internalType":"uint256"},{"name":"newDeadline","type":"uint256","indexed":false,"internalType":"uint256"}],"anonymous":false},{"type":"event","name":"ExtensionRequested","inputs":[{"name":"contractId","type":"uint256","indexed":true,"internalType":"uint256"},{"name":"requester","type":"address","indexed":false,"internalType":"address"},{"name":"proposedDeadline","type":"uint256","indexed":false,"internalType":"uint256"}],"anonymous":false},{"type":"event","name":"FreelancerSelected","inputs":[{"name":"contractId","type":"uint256","indexed":true,"internalType":"uint256"},{"name":"freelancer","type":"address","indexed":true,"internalType":"address"}],"anonymous":false},{"type":"event","name":"MilestoneReleased","inputs":[{"name":"contractId","type":"uint256","indexed":true,"internalType":"uint256"},{"name":"milestoneIndex","type":"uint256","indexed":false,"internalType":"uint256"},{"name":"amount","type":"uint256","indexed":false,"internalType":"uint256"}],"anonymous":false},{"type":"event","name":"RecurringPaymentReleased","inputs":[{"name":"contractId","type":"uint256","indexed":true,"internalType":"uint256"},{"name":"amount","type":"uint256","indexed":false,"internalType":"uint256"},{"name":"periodNumber","type":"uint256","indexed":false,"internalType":"uint256"}],"anonymous":false},{"type":"error","name":"ReentrancyGuardReentrantCall","inputs":[]}],"bytecode":{"object":"0x60a0346100ba57601f6135ab38819003918201601f19168301916001600160401b038311848410176100be578084926020946040528339810103126100ba57516001600160a01b038116908190036100ba5760017f9b779b17422d0df92223018b32b4d1fa46e071723d6817e2486d003becc55f00556080526040516134d890816100d3823960805181818161021c0152818161075601528181610dff01528181610f4501528181611692015281816121530152612bcf0152f35b5f80fd5b634e487b7160e01b5f52604160045260245ffdfe6101406040526004361015610012575f80fd5b5f3560e01c806312550e1e14612cf45780631c376c6314612c6e5780632804745014612ac9578063380deabc1461295a57806342c549c014612813578063460ff8c414612484578063474da79a1461228c5780634df7dcf21461206e5780634efec69d14611a915780636ebc8c861461174257806377fd00c5146115af5780637a870b631461152357806381631bf514610f905780638736381a14610f7457806389a3027114610f305780639c17e43914610d4f5780639f369aa914610c19578063a5c1674e14610b6c578063aedf609814610a26578063bc8c937d146108d6578063c611001d14610682578063d1a628381461036b578063dbaf0910146101505763fadd2b6914610122575f80fd5b3461014c57602036600319011261014c576004355f526003602052602060405f2054604051908152f35b5f80fd5b3461014c5761015e36612dc1565b9061016761330c565b805f52600160205260405f2061018760018060a01b038254163314613009565b60ff600682015460101c1660078110156103575760016101a791146131e2565b815f5260026020526101bc8360405f20612dd7565b509060038201805460ff811661031f5760ff8160081c166102e55760ff19166001908117909155908101549101805460405163a9059cbb60e01b81526001600160a01b03939093166004840152602483015290602081806044810103815f7f00000000000000000000000000000000000000000000000000000000000000006001600160a01b03165af180156102da576102989484936102876040937fd33fcd27cbfb73a2d9058c968b560ccb306500bf536133802048489ecc7355e9955f916102ab575b50613229565b5482519182526020820152a2613423565b60015f5160206134835f395f51905f5255005b6102cd915060203d6020116102d3575b6102c58183612d7c565b810190612fb5565b89610281565b503d6102bb565b6040513d5f823e3d90fd5b60405162461bcd60e51b8152602060048201526012602482015271135a5b195cdd1bdb9948191a5cdc1d5d195960721b6044820152606490fd5b60405162461bcd60e51b815260206004820152601060248201526f105b1c9958591e481c995b19585cd95960821b6044820152606490fd5b634e487b7160e01b5f52602160045260245ffd5b3461014c57606036600319011261014c576004356024356001600160401b03811161014c5761039e903690600401612f35565b825f93929352600160205260405f20600681015460ff8160081c16906002821015610357576103d1600160ff9314613043565b60101c166007811015610357576103e89015613081565b546001600160a01b03163314610647575f8281526003602052604081208054915b8281106105ed57505050815f52600360205261043a60405f20936040519261043084612d45565b338452369161313f565b9260208201938452604082016044358152606083019042825260808401925f84528054600160401b8110156105c65761047891600182018155612f62565b9490946105da575184546001600160a01b0319166001600160a01b03919091161784559451805190959060018501906001600160401b0381116105c6576104c9816104c38454612df0565b84613184565b6020601f821160011461055a578160049695949392610502926105279a9b5f9261054f575b50508160011b915f199060031b1c19161790565b90555b51600285015551600384015551151591019060ff801983541691151516179055565b33907f394b2f46e841d2b670718e98a15dfb76853abc5a8761449c74e9cba62d9015215f80a3005b015190508b806104ee565b601f19821698835f52815f20995f5b8181106105ae5750996001928492600499989796956105279c9d10610596575b505050811b019055610505565b01515f1960f88460031b161c191690558a8080610589565b838301518c556001909b019a60209384019301610569565b634e487b7160e01b5f52604160045260245ffd5b634e487b7160e01b5f525f60045260245ffd5b6105f78183612f62565b50546001600160a01b0316331461061057600101610409565b60405162461bcd60e51b815260206004820152600f60248201526e105b1c9958591e48185c1c1b1a5959608a1b6044820152606490fd5b60405162461bcd60e51b8152602060048201526013602482015272436c69656e742063616e6e6f74206170706c7960681b6044820152606490fd5b3461014c57602036600319011261014c5760043561069e61330c565b805f52600160205260405f2060018060a01b0360018201541680330361089157600682019060ff825460101c166007811015610357576106de90156130d3565b600a83019081549060ff821615610858571561081a5761ff001916610100179055805462ff000019166201000017905542600d82015580546007909101546040516323b872dd60e01b81526001600160a01b039283166004820152306024820152604481019190915290602090829060649082905f907f0000000000000000000000000000000000000000000000000000000000000000165af19081156102da575f916107fb575b50156107c3577f73edfb7736e2a79d626edb978d46bcd467644e8a44cbe706358022b6a6d361ec5f80a260015f5160206134835f395f51905f5255005b60405162461bcd60e51b815260206004820152601060248201526f1554d110c81b1bd8dac819985a5b195960821b6044820152606490fd5b610814915060203d6020116102d3576102c58183612d7c565b82610786565b60405162461bcd60e51b8152602060048201526016602482015275139bc8199c99595b185b98d95c88185cdcda59db995960521b6044820152606490fd5b60405162461bcd60e51b815260206004820152601160248201527010db1a595b9d081b9bdd081cda59db9959607a1b6044820152606490fd5b60405162461bcd60e51b815260206004820152601860248201527f4f6e6c792061737369676e656420667265656c616e63657200000000000000006044820152606490fd5b3461014c57602036600319011261014c576004355f52600360205260405f20805490610901826130bc565b9161090f6040519384612d7c565b8083526020830180925f5260205f205f915b8383106109c857848660405191829160208301906020845251809152604083019060408160051b85010192915f905b82821061095f57505050500390f35b919360019193955060208091603f19898203018552875190848060a01b03825116815260808061099c8585015160a08786015260a0850190612d9d565b936040810151604085015260608101516060850152015115159101529601920192018594939192610950565b600560206001926040516109db81612d45565b848060a01b0386541681526109f1858701612e28565b83820152600286015460408201526003860154606082015260ff60048701541615156080820152815201920192019190610921565b3461014c57602036600319011261014c57600435805f52600160205260405f2060ff600682015460101c166007811015610357576001610a6691146131e2565b6010810180548015610b305782546001600160a01b031633148015610b1a575b610a8f90612f7b565b3314610ad55760095f838160209460117fddcf0b9dbe14d2de9b94c3dcf9ad6f0767698e2b055eb5574b2967eee37f1a3e970192835495869101555555604051908152a2005b60405162461bcd60e51b815260206004820152601a60248201527f43616e6e6f7420617070726f7665206f776e20726571756573740000000000006044820152606490fd5b5060018301546001600160a01b03163314610a86565b60405162461bcd60e51b81526020600482015260146024820152734e6f20657874656e73696f6e2070656e64696e6760601b6044820152606490fd5b3461014c57602036600319011261014c57600435805f52600160205260405f20600681019060ff825460101c1690600782101561035757610bb26001610bcd93146131e2565b80546001600160a01b03163314908115610c02575b50612f7b565b805462ff00001916620300001790557f98d22f4435fd442cf6b79b75c63d172a99344a7073b97b2e1606aa6be67e3d5f5f80a2005b600101546001600160a01b03163314905084610bc7565b3461014c57610c2736612dc1565b815f52600160205260405f209060ff600683015460101c166007811015610357576001610c5491146131e2565b81546001600160a01b031633148015610d39575b610c7190612f7b565b6009820154811115610d045760108201908154610ccb5733918290556011929092018290556040805191825260208201929092527fe47cff2ebed8ad4659f468899ab7ebd88febb7485219b360fc15bfac802daf989190a2005b60405162461bcd60e51b8152602060048201526011602482015270457874656e73696f6e2070656e64696e6760781b6044820152606490fd5b60405162461bcd60e51b815260206004820152600d60248201526c26bab9ba103132903630ba32b960991b6044820152606490fd5b5060018201546001600160a01b03163314610c68565b3461014c57606036600319011261014c57600435610d6b612ec8565b604435610d7661330c565b825f52600160205260405f20600681019060ff825460101c16600781101561035757600303610efc5780546001600160a01b0385811691168114918215610ee5575b505015610eaf57805462ff000019166204000017905560405163a9059cbb60e01b81526001600160a01b03831660048201526024810182905291602083806044810103815f7f00000000000000000000000000000000000000000000000000000000000000006001600160a01b03165af19283156102da577f26ce8cc027750550c2d7b41819ec165ab251f2435349e828cf956a0b55bc2e7f93610e62915f91610e905750613229565b604080516001600160a01b039290921682526020820192909252a260015f5160206134835f395f51905f5255005b610ea9915060203d6020116102d3576102c58183612d7c565b86610281565b60405162461bcd60e51b815260206004820152600e60248201526d24b73b30b634b2103bb4b73732b960911b6044820152606490fd5b600101546001600160a01b03161490508580610db8565b60405162461bcd60e51b815260206004820152600c60248201526b139bdd08191a5cdc1d5d195960a21b6044820152606490fd5b3461014c575f36600319011261014c576040517f00000000000000000000000000000000000000000000000000000000000000006001600160a01b03168152602090f35b3461014c575f36600319011261014c5760205f54604051908152f35b3461014c5761016036600319011261014c576004356001600160a01b0381169081900361014c576024356001600160401b03811161014c57610fd6903690600401612f35565b91906044356001600160401b03811161014c57610ff7903690600401612f35565b926064356001600160401b03811161014c57611017903690600401612f35565b9590916084356001600160401b03811161014c57611039903690600401612f35565b93909460a43591600383101561014c5760c4359960e4359285156114e9573386146114ad576110698c1515613267565b6110744285116132a8565b61107e5f5461321b565b5f81815581815260016020819052604090912080546001600160a01b031990811633178255918101805490921690981790559a600287016001600160401b0389116105c6576110d7896110d18354612df0565b83613184565b5f898d601f821160011461144357611104925f91836114385750508160011b915f199060031b1c19161790565b90555b60038701916001600160401b0382116105c65761112e826111288554612df0565b85613184565b5f90601f83116001146113d45761115b92915f91836112c85750508160011b915f199060031b1c19161790565b90555b60048501916001600160401b0382116105c65761117f826111288554612df0565b5f90601f8311600114611370576111ac92915f91836113655750508160011b915f199060031b1c19161790565b90555b60058301986001600160401b0386116105c65789866111d58b986104c360209e54612df0565b5f601f82116001146112d357816002969594939261122a927f47ef1a9540f1f60ecd28bf6b98dec6ac975c756c637257a20cf33a2619c57b1b9b9c5f926112c85750508160011b915f199060031b1c19161790565b90555b6006850161123b84826132f4565b805462ffff001916905560078501554260088501556009840155600a8301805460ff19166001179055146112a7575b5080604051946040865281604087015260608601375f60608286010152601f80199101168301925f868201526060813395030190a3604051908152f35b61010435600b82015561012435600c820155600e610144359101558661126a565b013590508f806104ee565b9091929398601f19831691845f528d5f20925f5b81811061134b575092600192859260029998967f47ef1a9540f1f60ecd28bf6b98dec6ac975c756c637257a20cf33a2619c57b1b9d9e989610611332575b505050811b01905561122d565b01355f19600384901b60f8161c191690558e8080611325565b8284013585558e9b50600190940193918f01918f016112e7565b013590508d806104ee565b601f19831691845f5260205f20925f5b8181106113bc57509084600195949392106113a3575b505050811b0190556111af565b01355f19600384901b60f8161c191690558c8080611396565b91936020600181928787013581550195019201611380565b601f19831691845f5260205f20925f5b8181106114205750908460019594939210611407575b505050811b01905561115e565b01355f19600384901b60f8161c191690558e80806113fa565b919360206001819287870135815501950192016113e4565b013590505f8f6104ee565b9050601f198b1691835f528b60205f20935f5b81811061148d575010611474575b505050600189811b019055611107565b01355f1960038c901b60f8161c191690558e8c81611464565b936020925083958392946001920135815501940192018f92918d91611456565b60405162461bcd60e51b815260206004820152601460248201527321b0b73737ba103434b932903cb7bab939b2b63360611b6044820152606490fd5b60405162461bcd60e51b815260206004820152601260248201527124b73b30b634b210333932b2b630b731b2b960711b6044820152606490fd5b3461014c5761153136612dc1565b905f52600360205260405f2090815481101561014c5761155091612f62565b5080546001600160a01b031661156860018301612e28565b9160028101549060ff600460038301549201541690611599604051958695865260a0602087015260a0860190612d9d565b9260408501526060840152151560808301520390f35b3461014c57602036600319011261014c57600435805f52600160205260405f206006810160ff815460101c1660078110156103575760016115f091146131e2565b600982015442111561170f5781546001600160a01b0316331480156116f9575b61161990612f7b565b805462ff000019166206000017905561163182613351565b908161165f575b827f9325fbfd991d20e53f36adfe94b443a61b400da1d2fa18bc3c8dd6744c10a0fa5f80a2005b5460405163a9059cbb60e01b81526001600160a01b0390911660048201526024810191909152602081806044810103815f7f00000000000000000000000000000000000000000000000000000000000000006001600160a01b03165af180156102da576116d3915f916116da575b50612fcd565b8180611638565b6116f3915060203d6020116102d3576102c58183612d7c565b836116cd565b5060018201546001600160a01b03163314611610565b60405162461bcd60e51b815260206004820152600b60248201526a139bdd08195e1c1a5c995960aa1b6044820152606490fd5b3461014c57602036600319011261014c575f61028060405161176381612d60565b8281528260208201526060604082015260608082015260606080820152606060a08201528260c08201528260e08201528261010082015282610120820152826101408201528261016082015282610180820152826101a0820152826101c0820152826101e08201528261020082015282610220820152826102408201528261026082015201526004355f52600160205260405f206040519061180482612d60565b80546001600160a01b039081168352600182015416602083015261182a60028201612e28565b604083015261183b60038201612e28565b606083015261184c60048201612e28565b608083015261185d60058201612e28565b60a0830152600681015460ff811660038110156103575760c084015260ff8160081c169060028210156103575760ff9160e085015260101c169060078210156103575760119161010084015260078101546101208401526008810154610140840152600981015461016084015260ff600a820154818116151561018086015260081c1615156101a0840152600b8101546101c0840152600c8101546101e0840152600d810154610200840152600e810154610220840152600f8101546102408401526010810154610260840152015461028082015260405180916020825260018060a01b03815116602083015260018060a01b0360208201511660408301526102806119c56119af61199961198360408601516102a060608901526102c0880190612d9d565b6060860151878203601f19016080890152612d9d565b6080850151868203601f190160a0880152612d9d565b60a0840151858203601f190160c0870152612d9d565b916119d860c082015160e0860190612f0e565b6119eb60e0820151610100860190612f1b565b6119ff610100820151610120860190612f28565b61012081015161014085015261014081015161016085015261016081015161018085015261018081015115156101a08501526101a081015115156101c08501526101c08101516101e08501526101e08101516102008501526102008101516102208501526102208101516102408501526102408101516102608501526102608101518285015201516102a08301520390f35b3461014c5761014036600319011261014c576004356001600160401b03811161014c57611ac2903690600401612f35565b906024356001600160401b03811161014c57611ae2903690600401612f35565b6044929192356001600160401b03811161014c57611b04903690600401612f35565b906064356001600160401b03811161014c57611b24903690600401612f35565b9190926003608435101561014c57611b3f60a4351515613267565b611b4c4260c435116132a8565b611b565f5461321b565b96875f55875f52600160205260405f209560018060a01b0333166bffffffffffffffffffffffff60a01b885416178755600187016bffffffffffffffffffffffff60a01b81541690556001600160401b038a116105c657611bc78a611bbe60028a0154612df0565b60028a01613184565b5f8a601f81116001146120035780611bf3925f91611ff8575b508160011b915f199060031b1c19161790565b60028801555b60038701916001600160401b0382116105c657611c1a826111288554612df0565b5f90601f8311600114611f9457611c4792915f9183611f895750508160011b915f199060031b1c19161790565b90555b60048501916001600160401b0382116105c657611c6b826111288554612df0565b5f90601f8311600114611f2557611c9892915f9183611f1a5750508160011b915f199060031b1c19161790565b90555b60058301916001600160401b0382116105c657611cbc826111288554612df0565b5f90601f8311600114611eb657611ce992915f9183611eab5750508160011b915f199060031b1c19161790565b90555b60068101611cfc608435826132f4565b805462ffff00191661010017905560a435600782015542600882015560c4356009820155600a8101805460ff19166001179055608435600214611d9d575b50817f47ef1a9540f1f60ecd28bf6b98dec6ac975c756c637257a20cf33a2619c57b1b84602095604051946040865281604087015260608601375f60608286010152601f80199101168301926001868201526060813395030190a3604051908152f35b9260e43515611e66576101043515611e21576101243515611ddc5760e435600b85015561010435600c85015561012435600e9094019390935581611d3a565b60405162461bcd60e51b815260206004820152601860248201527f526563757272696e6720636f756e7420726571756972656400000000000000006044820152606490fd5b60405162461bcd60e51b815260206004820152601b60248201527f526563757272696e6720696e74657276616c20726571756972656400000000006044820152606490fd5b60405162461bcd60e51b815260206004820152601960248201527f526563757272696e6720616d6f756e74207265717569726564000000000000006044820152606490fd5b0135905088806104ee565b601f19831691845f5260205f20925f5b818110611f025750908460019594939210611ee9575b505050811b019055611cec565b01355f19600384901b60f8161c19169055878080611edc565b91936020600181928787013581550195019201611ec6565b013590508a806104ee565b601f19831691845f5260205f20925f5b818110611f715750908460019594939210611f58575b505050811b019055611c9b565b01355f19600384901b60f8161c19169055898080611f4b565b91936020600181928787013581550195019201611f35565b013590508c806104ee565b601f19831691845f5260205f20925f5b818110611fe05750908460019594939210611fc7575b505050811b019055611c4a565b01355f19600384901b60f8161c191690558b8080611fba565b91936020600181928787013581550195019201611fa4565b90508a01358d611be0565b50600288015f5260205f20905f5b8a601f198e1682106120565750508b601f1981161061203d575b505060018a811b016002880155611bf9565b8901355f1960038d901b60f8161c191690558a8061202b565b60018394602093948493013581550193019101612011565b3461014c57602036600319011261014c5760043561208a61330c565b805f52600160205260405f206006810191825460ff8160101c16906007821015610357576120bc600160ff93146131e2565b1660038110156103575760020361225757600d8201906120e28254600c8501549061311e565b421061222657600f830192835490600e81019384548310156121f65761214e9261210e9142905561321b565b85556001810154600b909101805460405163a9059cbb60e01b81526001600160a01b03909316600484015260248301529091602090839081906044820190565b03815f7f00000000000000000000000000000000000000000000000000000000000000006001600160a01b03165af19081156102da576121b86040927f4ad20d7379197e1bc6eb2ba755385f362d82d03207be3af65895e754b634981f945f916102ab5750613229565b549454948151908152856020820152a254146121e15760015f5160206134835f395f51905f5255005b805462ff000019166202000017905580610298565b60405162461bcd60e51b8152602060048201526008602482015267105b1b081c185a5960c21b6044820152606490fd5b60405162461bcd60e51b8152602060048201526009602482015268546f6f206561726c7960b81b6044820152606490fd5b60405162461bcd60e51b815260206004820152600d60248201526c4e6f7420726563757272696e6760981b6044820152606490fd5b3461014c57602036600319011261014c576004355f9081526001602081905260409091208054918101546001600160a01b0390811660c052909116906122d460028201612e28565b610100526122e460038201612e28565b610120526122f460048201612e28565b9161230160058301612e28565b92600683015493600784015460088501546009860154600a87015491600b88015493600c89015495600d8a015497600e8b015499600f8c01549b60108101546080526011015460a05260405160e05260e0515260c05160e0516020015260e0516040016102a0905260e0516102a001610100519061237e91612d9d565b60e051810360e05160600152610120519061239891612d9d565b60e051810360e051608001526123ad91612d9d565b60e051810360e05160a001526123c291612d9d565b9960e05160c00160ff8216906123d791612f0e565b60e05160e0018160081c60ff16906123ee91612f1b565b60e051610100019060101c60ff169061240691612f28565b60e051610120015260e051610140015260e051610160015260ff8116151560e051610180015260081c60ff16151560e0516101a0015260e0516101c0015260e0516101e0015260e051610200015260e051610220015260e051610240015260805160e051610260015260a05160e051610280015260e051900360e051f35b3461014c57608036600319011261014c576004356024356001600160401b03811161014c576124b7903690600401612ede565b906044356001600160401b03811161014c576124d7903690600401612ede565b6064929192356001600160401b03811161014c576124f9903690600401612ede565b949091865f52600160205260405f209561251d60018060a01b038854163314613009565b60ff600688015460101c1660078110156103575761253b90156130d3565b8183148061280a575b156127d457969291905f959495975f96601e1981360301905b8389106125c1578a60078b01540361257157005b60405162461bcd60e51b815260206004820152602260248201527f4d696c6573746f6e6520616d6f756e7473206d75737420657175616c20746f74604482015261185b60f21b6064820152608490fd5b9091929394959697996125e0906125d98c878c61310e565b359061311e565b99875f52600260205260405f20868210156127c0578160051b8301358481121561014c578301908135916001600160401b03831161014c5760200191803603831361014c578992612658612642868f61263b828e8e9361310e565b359761310e565b35916040519361265185612d45565b369161313f565b8252602082019384526040820190815260608201935f855260808301935f85528054600160401b8110156105c65761269591600182018155612dd7565b9390936105da57518051906001600160401b0382116105c6576126c2826126bc8754612df0565b87613184565b602090601f831160011461275157926126fe8360019a9998979461272397946003975f926127465750508160011b915f199060031b1c19161790565b83555b51888301555160028201550192511515839060ff801983541691151516179055565b51815461ff00191690151560081b61ff001617905501979695949392919061255d565b015190505f806104ee565b90601f19831691865f52815f20925f5b8181106127a857509361272396936003969360019c9b9a999693838e9510612791575b505050811b018355612701565b01515f1983891b60f8161c191690555f8080612784565b92936020600181928786015181550195019301612761565b634e487b7160e01b5f52603260045260245ffd5b60405162461bcd60e51b815260206004820152600e60248201526d082e4e4c2f240dad2e6dac2e8c6d60931b6044820152606490fd5b50808214612544565b3461014c57602036600319011261014c576004355f52600260205260405f2080549061283e826130bc565b9161284c6040519384612d7c565b8083526020830180925f5260205f205f915b83831061290057848660405191829160208301906020845251809152604083019060408160051b85010192915f905b82821061289c57505050500390f35b919360019193955060208091603f198982030185528751906080806128ca845160a0855260a0850190612d9d565b9385810151868501526040810151604085015260608101511515606085015201511515910152960192019201859493919261288d565b6004602060019260405161291381612d45565b61291c86612e28565b815284860154838201526002860154604082015260ff60038701548181161515606084015260081c161515608082015281520192019201919061285e565b3461014c57604036600319011261014c57600435612976612ec8565b815f52600160205260405f209161299760018060a01b038454163314613009565b600683015460ff8160081c16906002821015610357576129bb600160ff9314613043565b60101c16600781101561035757906129d4849215613081565b5f8181526003602052604081206001600160a01b0390941693909290835b8154811015612ac05785612a068284612f62565b50546001600160a01b031614612a1e576001016129f2565b600492939450612a2d91612f62565b5001600160ff1982541617905560015b15612a7b5760010180546001600160a01b031916831790557f038b6dd13ab376cd96a6924f79dde494c7fbb5ea9f8c950b668d934645995cfd5f80a3005b60405162461bcd60e51b815260206004820152601860248201527f467265656c616e63657220646964206e6f74206170706c7900000000000000006044820152606490fd5b50509091612a3d565b3461014c57602036600319011261014c57600435612ae561330c565b805f52600160205260405f2060018060a01b0381541633148015612c58575b612b0d90612f7b565b6006810160ff815460101c1690600782101590816103575782158015612c4b575b15612c1657805462ff000019166205000017905561035757600114612b86575b507f2d5f5ed000d42aa6f6fc13400f7d7161cd1bea793fec354b11e3451f9f2b07c35f80a260015f5160206134835f395f51905f5255005b612b8f82613351565b9081612b9c575b50612b4e565b5460405163a9059cbb60e01b81526001600160a01b0390911660048201526024810191909152602081806044810103815f7f00000000000000000000000000000000000000000000000000000000000000006001600160a01b03165af180156102da57612c0f915f916116da5750612fcd565b8180612b96565b60405162461bcd60e51b815260206004820152600d60248201526c10d85b9b9bdd0818d85b98d95b609a1b6044820152606490fd5b505f915060018314612b2e565b5060018101546001600160a01b03163314612b04565b3461014c57612c7c36612dc1565b905f52600260205260405f20805482101561014c57612cd091612c9e91612dd7565b50612ca881612e28565b9060ff600182015491600360028201549101549060405195869560a0875260a0870190612d9d565b93602086015260408501528181161515606085015260081c16151560808301520390f35b3461014c575f36600319011261014c57612d41604051612d15604082612d7c565b600b81526a1898d7dd8c585b5c1d994d60aa1b6020820152604051918291602083526020830190612d9d565b0390f35b60a081019081106001600160401b038211176105c657604052565b6102a081019081106001600160401b038211176105c657604052565b90601f801991011681019081106001600160401b038211176105c657604052565b805180835260209291819084018484015e5f828201840152601f01601f1916010190565b604090600319011261014c576004359060243590565b80548210156127c0575f5260205f209060021b01905f90565b90600182811c92168015612e1e575b6020831014612e0a57565b634e487b7160e01b5f52602260045260245ffd5b91607f1691612dff565b9060405191825f825492612e3b84612df0565b8084529360018116908115612ea65750600114612e62575b50612e6092500383612d7c565b565b90505f9291925260205f20905f915b818310612e8a575050906020612e60928201015f612e53565b6020919350806001915483858901015201910190918492612e71565b905060209250612e6094915060ff191682840152151560051b8201015f612e53565b602435906001600160a01b038216820361014c57565b9181601f8401121561014c578235916001600160401b03831161014c576020808501948460051b01011161014c57565b9060038210156103575752565b9060028210156103575752565b9060078210156103575752565b9181601f8401121561014c578235916001600160401b03831161014c576020838186019501011161014c57565b80548210156127c0575f52600560205f20910201905f90565b15612f8257565b60405162461bcd60e51b815260206004820152600b60248201526a4e6f74206120706172747960a81b6044820152606490fd5b9081602091031261014c5751801515810361014c5790565b15612fd457565b60405162461bcd60e51b815260206004820152600d60248201526c1499599d5b990819985a5b1959609a1b6044820152606490fd5b1561301057565b60405162461bcd60e51b815260206004820152600b60248201526a13db9b1e4818db1a595b9d60aa1b6044820152606490fd5b1561304a57565b60405162461bcd60e51b815260206004820152600f60248201526e2737ba1030b71037b832b7103537b160891b6044820152606490fd5b1561308857565b60405162461bcd60e51b815260206004820152600c60248201526b2537b1103737ba1037b832b760a11b6044820152606490fd5b6001600160401b0381116105c65760051b60200190565b156130da57565b60405162461bcd60e51b815260206004820152600c60248201526b139bdd081c1c9bdc1bdcd95960a21b6044820152606490fd5b91908110156127c05760051b0190565b9190820180921161312b57565b634e487b7160e01b5f52601160045260245ffd5b9291926001600160401b0382116105c65760405191613168601f8201601f191660200184612d7c565b82948184528183011161014c578281602093845f960137010152565b919091601f8311613195575b505050565b8183116131a157505050565b5f5260205f206020601f830160051c92106131da575b81601f9101920160051c03905f5b82811015613190575f828201556001016131c5565b5f91506131b7565b156131e957565b60405162461bcd60e51b815260206004820152600a6024820152694e6f742061637469766560b01b6044820152606490fd5b5f19811461312b5760010190565b1561323057565b60405162461bcd60e51b815260206004820152600f60248201526e151c985b9cd9995c8819985a5b1959608a1b6044820152606490fd5b1561326e57565b60405162461bcd60e51b81526020600482015260126024820152710416d6f756e74206d757374206265203e20360741b6044820152606490fd5b156132af57565b60405162461bcd60e51b815260206004820152601a60248201527f446561646c696e65206d75737420626520696e206675747572650000000000006044820152606490fd5b9060038110156103575760ff80198354169116179055565b60025f5160206134835f395f51905f5254146133355760025f5160206134835f395f51905f5255565b633ee5aeb560e01b5f5260045ffd5b9190820391821161312b57565b805f52600160205260405f209060ff600683015416600381101561035757600181036133e957505f52600260205260405f20905f915f908054915b8281106133a7575050509060076133a4920154613344565b90565b60ff60036133b58385612dd7565b500154166133c6575b60010161338c565b936133e1600191826133d88886612dd7565b5001549061311e565b9490506133be565b60029150146133f9576007015490565b600781015490600b600f8201549101549081810291818304149015171561312b576133a491613344565b5f8181526002602052604081208054915b82811061345d575050505f526001602052600660405f20016202000062ff000019825416179055565b60ff600361346b8385612dd7565b500154161561347c57600101613434565b5050505056fe9b779b17422d0df92223018b32b4d1fa46e071723d6817e2486d003becc55f00a26469706673582212205fcf349d5c7174f0818c66dbbdbaa1a21372662b81e51b650950f92dc0b3f88764736f6c63430008210033","linkReferences":{}},"methodIdentifiers":{"BUILDER_CODE()":"12550e1e","USDC()":"89a30271","addMilestones(uint256,string[],uint256[],uint256[])":"460ff8c4","applications(uint256,uint256)":"7a870b63","applyForJob(uint256,string,uint256)":"d1a62838","approveExtension(uint256)":"aedf6098","cancelContract(uint256)":"28047450","contractCount()":"8736381a","contracts(uint256)":"474da79a","getApplicationCount(uint256)":"fadd2b69","getApplications(uint256)":"bc8c937d","getContract(uint256)":"6ebc8c86","getMilestones(uint256)":"42c549c0","markExpired(uint256)":"77fd00c5","milestones(uint256,uint256)":"1c376c63","postOpenJob(string,string,string,string,uint8,uint256,uint256,uint256,uint256,uint256)":"4efec69d","proposeDirectContract(address,string,string,string,string,uint8,uint256,uint256,uint256,uint256,uint256)":"81631bf5","raiseDispute(uint256)":"a5c1674e","releaseMilestone(uint256,uint256)":"dbaf0910","releaseRecurringPayment(uint256)":"4df7dcf2","requestExtension(uint256,uint256)":"9f369aa9","resolveDispute(uint256,address,uint256)":"9c17e439","selectFreelancer(uint256,address)":"380deabc","signAndActivate(uint256)":"c611001d"},"id":19}