{"abi":[{"type":"constructor","inputs":[{"name":"_usdc","type":"address","internalType":"address"}],"stateMutability":"nonpayable"},{"type":"function","name":"BUILDER_CODE","inputs":[],"outputs":[{"name":"","type":"string","internalType":"string"}],"stateMutability":"view"},{"type":"function","name":"USDC","inputs":[],"outputs":[{"name":"","type":"address","internalType":"contract IERC20"}],"stateMutability":"view"},{"type":"function","name":"addMilestones","inputs":[{"name":"_contractId","type":"uint256","internalType":"uint256"},{"name":"_descriptions","type":"string[]","internalType":"string[]"},{"name":"_amounts","type":"uint256[]","internalType":"uint256[]"},{"name":"_deadlines","type":"uint256[]","internalType":"uint256[]"}],"outputs":[],"stateMutability":"nonpayable"},{"type":"function","name":"applications","inputs":[{"name":"","type":"uint256","internalType":"uint256"},{"name":"","type":"uint256","internalType":"uint256"}],"outputs":[{"name":"freelancer","type":"address","internalType":"address"},{"name":"coverNote","type":"string","internalType":"string"},{"name":"proposedRate","type":"uint256","internalType":"uint256"},{"name":"appliedAt","type":"uint256","internalType":"uint256"},{"name":"selected","type":"bool","internalType":"bool"}],"stateMutability":"view"},{"type":"function","name":"applyForJob","inputs":[{"name":"_contractId","type":"uint256","internalType":"uint256"},{"name":"_coverNote","type":"string","internalType":"string"},{"name":"_proposedRate","type":"uint256","internalType":"uint256"}],"outputs":[],"stateMutability":"nonpayable"},{"type":"function","name":"approveExtension","inputs":[{"name":"_contractId","type":"uint256","internalType":"uint256"}],"outputs":[],"stateMutability":"nonpayable"},{"type":"function","name":"cancelContract","inputs":[{"name":"_contractId","type":"uint256","internalType":"uint256"}],"outputs":[],"stateMutability":"nonpayable"},{"type":"function","name":"contractCount","inputs":[],"outputs":[{"name":"","type":"uint256","internalType":"uint256"}],"stateMutability":"view"},{"type":"function","name":"contracts","inputs":[{"name":"","type":"uint256","internalType":"uint256"}],"outputs":[{"name":"client","type":"address","internalType":"address"},{"name":"freelancer","type":"address","internalType":"address"},{"name":"title","type":"string","internalType":"string"},{"name":"description","type":"string","internalType":"string"},{"name":"category","type":"string","internalType":"string"},{"name":"paymentType","type":"uint8","internalType":"enum WorkChainEscrow.PaymentType"},{"name":"contractType","type":"uint8","internalType":"enum WorkChainEscrow.ContractType"},{"name":"status","type":"uint8","internalType":"enum WorkChainEscrow.ContractStatus"},{"name":"totalAmount","type":"uint256","internalType":"uint256"},{"name":"createdAt","type":"uint256","internalType":"uint256"},{"name":"deadline","type":"uint256","internalType":"uint256"},{"name":"clientSigned","type":"bool","internalType":"bool"},{"name":"freelancerSigned","type":"bool","internalType":"bool"},{"name":"recurringAmount","type":"uint256","internalType":"uint256"},{"name":"recurringInterval","type":"uint256","internalType":"uint256"},{"name":"lastPaymentAt","type":"uint256","internalType":"uint256"},{"name":"recurringCount","type":"uint256","internalType":"uint256"},{"name":"recurringPaid","type":"uint256","internalType":"uint256"},{"name":"extensionRequestedBy","type":"uint256","internalType":"uint256"},{"name":"proposedDeadline","type":"uint256","internalType":"uint256"}],"stateMutability":"view"},{"type":"function","name":"getApplicationCount","inputs":[{"name":"_contractId","type":"uint256","internalType":"uint256"}],"outputs":[{"name":"","type":"uint256","internalType":"uint256"}],"stateMutability":"view"},{"type":"function","name":"getApplications","inputs":[{"name":"_contractId","type":"uint256","internalType":"uint256"}],"outputs":[{"name":"","type":"tuple[]","internalType":"struct WorkChainEscrow.Application[]","components":[{"name":"freelancer","type":"address","internalType":"address"},{"name":"coverNote","type":"string","internalType":"string"},{"name":"proposedRate","type":"uint256","internalType":"uint256"},{"name":"appliedAt","type":"uint256","internalType":"uint256"},{"name":"selected","type":"bool","internalType":"bool"}]}],"stateMutability":"view"},{"type":"function","name":"getContract","inputs":[{"name":"_contractId","type":"uint256","internalType":"uint256"}],"outputs":[{"name":"","type":"tuple","internalType":"struct WorkChainEscrow.WorkContract","components":[{"name":"client","type":"address","internalType":"address"},{"name":"freelancer","type":"address","internalType":"address"},{"name":"title","type":"string","internalType":"string"},{"name":"description","type":"string","internalType":"string"},{"name":"category","type":"string","internalType":"string"},{"name":"paymentType","type":"uint8","internalType":"enum WorkChainEscrow.PaymentType"},{"name":"contractType","type":"uint8","internalType":"enum WorkChainEscrow.ContractType"},{"name":"status","type":"uint8","internalType":"enum WorkChainEscrow.ContractStatus"},{"name":"totalAmount","type":"uint256","internalType":"uint256"},{"name":"createdAt","type":"uint256","internalType":"uint256"},{"name":"deadline","type":"uint256","internalType":"uint256"},{"name":"clientSigned","type":"bool","internalType":"bool"},{"name":"freelancerSigned","type":"bool","internalType":"bool"},{"name":"recurringAmount","type":"uint256","internalType":"uint256"},{"name":"recurringInterval","type":"uint256","internalType":"uint256"},{"name":"lastPaymentAt","type":"uint256","internalType":"uint256"},{"name":"recurringCount","type":"uint256","internalType":"uint256"},{"name":"recurringPaid","type":"uint256","internalType":"uint256"},{"name":"extensionRequestedBy","type":"uint256","internalType":"uint256"},{"name":"proposedDeadline","type":"uint256","internalType":"uint256"}]}],"stateMutability":"view"},{"type":"function","name":"getMilestones","inputs":[{"name":"_contractId","type":"uint256","internalType":"uint256"}],"outputs":[{"name":"","type":"tuple[]","internalType":"struct WorkChainEscrow.Milestone[]","components":[{"name":"description","type":"string","internalType":"string"},{"name":"amount","type":"uint256","internalType":"uint256"},{"name":"deadline","type":"uint256","internalType":"uint256"},{"name":"released","type":"bool","internalType":"bool"},{"name":"disputed","type":"bool","internalType":"bool"}]}],"stateMutability":"view"},{"type":"function","name":"markExpired","inputs":[{"name":"_contractId","type":"uint256","internalType":"uint256"}],"outputs":[],"stateMutability":"nonpayable"},{"type":"function","name":"milestones","inputs":[{"name":"","type":"uint256","internalType":"uint256"},{"name":"","type":"uint256","internalType":"uint256"}],"outputs":[{"name":"description","type":"string","internalType":"string"},{"name":"amount","type":"uint256","internalType":"uint256"},{"name":"deadline","type":"uint256","internalType":"uint256"},{"name":"released","type":"bool","internalType":"bool"},{"name":"disputed","type":"bool","internalType":"bool"}],"stateMutability":"view"},{"type":"function","name":"postOpenJob","inputs":[{"name":"_title","type":"string","internalType":"string"},{"name":"_description","type":"string","internalType":"string"},{"name":"_category","type":"string","internalType":"string"},{"name":"_paymentType","type":"uint8","internalType":"enum WorkChainEscrow.PaymentType"},{"name":"_totalAmount","type":"uint256","internalType":"uint256"},{"name":"_deadline","type":"uint256","internalType":"uint256"},{"name":"_recurringAmount","type":"uint256","internalType":"uint256"},{"name":"_recurringInterval","type":"uint256","internalType":"uint256"},{"name":"_recurringCount","type":"uint256","internalType":"uint256"}],"outputs":[{"name":"","type":"uint256","internalType":"uint256"}],"stateMutability":"nonpayable"},{"type":"function","name":"proposeDirectContract","inputs":[{"name":"_freelancer","type":"address","internalType":"address"},{"name":"_title","type":"string","internalType":"string"},{"name":"_description","type":"string","internalType":"string"},{"name":"_category","type":"string","internalType":"string"},{"name":"_paymentType","type":"uint8","internalType":"enum WorkChainEscrow.PaymentType"},{"name":"_totalAmount","type":"uint256","internalType":"uint256"},{"name":"_deadline","type":"uint256","internalType":"uint256"},{"name":"_recurringAmount","type":"uint256","internalType":"uint256"},{"name":"_recurringInterval","type":"uint256","internalType":"uint256"},{"name":"_recurringCount","type":"uint256","internalType":"uint256"}],"outputs":[{"name":"","type":"uint256","internalType":"uint256"}],"stateMutability":"nonpayable"},{"type":"function","name":"raiseDispute","inputs":[{"name":"_contractId","type":"uint256","internalType":"uint256"}],"outputs":[],"stateMutability":"nonpayable"},{"type":"function","name":"releaseMilestone","inputs":[{"name":"_contractId","type":"uint256","internalType":"uint256"},{"name":"_milestoneIndex","type":"uint256","internalType":"uint256"}],"outputs":[],"stateMutability":"nonpayable"},{"type":"function","name":"releaseRecurringPayment","inputs":[{"name":"_contractId","type":"uint256","internalType":"uint256"}],"outputs":[],"stateMutability":"nonpayable"},{"type":"function","name":"requestExtension","inputs":[{"name":"_contractId","type":"uint256","internalType":"uint256"},{"name":"_newDeadline","type":"uint256","internalType":"uint256"}],"outputs":[],"stateMutability":"nonpayable"},{"type":"function","name":"resolveDispute","inputs":[{"name":"_contractId","type":"uint256","internalType":"uint256"},{"name":"_winner","type":"address","internalType":"address"},{"name":"_amount","type":"uint256","internalType":"uint256"}],"outputs":[],"stateMutability":"nonpayable"},{"type":"function","name":"selectFreelancer","inputs":[{"name":"_contractId","type":"uint256","internalType":"uint256"},{"name":"_freelancer","type":"address","internalType":"address"}],"outputs":[],"stateMutability":"nonpayable"},{"type":"function","name":"signAndActivate","inputs":[{"name":"_contractId","type":"uint256","internalType":"uint256"}],"outputs":[],"stateMutability":"nonpayable"},{"type":"event","name":"ApplicationSubmitted","inputs":[{"name":"contractId","type":"uint256","indexed":true,"internalType":"uint256"},{"name":"freelancer","type":"address","indexed":true,"internalType":"address"}],"anonymous":false},{"type":"event","name":"ContractActivated","inputs":[{"name":"contractId","type":"uint256","indexed":true,"internalType":"uint256"}],"anonymous":false},{"type":"event","name":"ContractCancelled","inputs":[{"name":"contractId","type":"uint256","indexed":true,"internalType":"uint256"}],"anonymous":false},{"type":"event","name":"ContractDisputed","inputs":[{"name":"contractId","type":"uint256","indexed":true,"internalType":"uint256"}],"anonymous":false},{"type":"event","name":"ContractExpired","inputs":[{"name":"contractId","type":"uint256","indexed":true,"internalType":"uint256"}],"anonymous":false},{"type":"event","name":"ContractProposed","inputs":[{"name":"contractId","type":"uint256","indexed":true,"internalType":"uint256"},{"name":"client","type":"address","indexed":true,"internalType":"address"},{"name":"title","type":"string","indexed":false,"internalType":"string"},{"name":"contractType","type":"uint8","indexed":false,"internalType":"uint8"}],"anonymous":false},{"type":"event","name":"ContractResolved","inputs":[{"name":"contractId","type":"uint256","indexed":true,"internalType":"uint256"},{"name":"winner","type":"address","indexed":false,"internalType":"address"},{"name":"amount","type":"uint256","indexed":false,"internalType":"uint256"}],"anonymous":false},{"type":"event","name":"ExtensionApproved","inputs":[{"name":"contractId","type":"uint256","indexed":true,"internalType":"uint256"},{"name":"newDeadline","type":"uint256","indexed":false,"internalType":"uint256"}],"anonymous":false},{"type":"event","name":"ExtensionRequested","inputs":[{"name":"contractId","type":"uint256","indexed":true,"internalType":"uint256"},{"name":"requester","type":"address","indexed":false,"internalType":"address"},{"name":"proposedDeadline","type":"uint256","indexed":false,"internalType":"uint256"}],"anonymous":false},{"type":"event","name":"FreelancerSelected","inputs":[{"name":"contractId","type":"uint256","indexed":true,"internalType":"uint256"},{"name":"freelancer","type":"address","indexed":true,"internalType":"address"}],"anonymous":false},{"type":"event","name":"MilestoneReleased","inputs":[{"name":"contractId","type":"uint256","indexed":true,"internalType":"uint256"},{"name":"milestoneIndex","type":"uint256","indexed":false,"internalType":"uint256"},{"name":"amount","type":"uint256","indexed":false,"internalType":"uint256"}],"anonymous":false},{"type":"event","name":"RecurringPaymentReleased","inputs":[{"name":"contractId","type":"uint256","indexed":true,"internalType":"uint256"},{"name":"amount","type":"uint256","indexed":false,"internalType":"uint256"},{"name":"periodNumber","type":"uint256","indexed":false,"internalType":"uint256"}],"anonymous":false},{"type":"error","name":"ReentrancyGuardReentrantCall","inputs":[]}],"bytecode":{"object":"0x60a0346100ba57601f61338738819003918201601f19168301916001600160401b038311848410176100be578084926020946040528339810103126100ba57516001600160a01b038116908190036100ba5760017f9b779b17422d0df92223018b32b4d1fa46e071723d6817e2486d003becc55f00556080526040516132b490816100d3823960805181818161072d01528181610c52015281816117ab015281816118f101528181611aab01528181611f5a01526129ab0152f35b5f80fd5b634e487b7160e01b5f52604160045260245ffdfe6101206040526004361015610012575f80fd5b5f3560e01c806312550e1e14612ad05780631c376c6314612a4a57806328047450146128a5578063380deabc1461273657806342c549c0146125ef578063460ff8c414612260578063474da79a146120935780634df7dcf214611e755780636ebc8c8614611b5b57806377fd00c5146119c85780637a870b631461193c5780638736381a1461192057806389a30271146118dc5780639c17e439146116fb5780639f369aa9146115c5578063a5c1674e14611518578063ad9645f814611068578063aedf609814610f22578063bc8c937d14610dd2578063c611001d14610b7e578063d1a628381461087c578063dbaf091014610661578063f3810240146101505763fadd2b6914610122575f80fd5b3461014c57602036600319011261014c576004355f526003602052602060405f2054604051908152f35b5f80fd5b3461014c5761012036600319011261014c576004356001600160401b03811161014c57610181903690600401612d2a565b906024356001600160401b03811161014c576101a1903690600401612d2a565b6044929192356001600160401b03811161014c576101c3903690600401612d2a565b6003606435101561014c576101db6084351515613043565b6101e84260a43511613084565b6101f25f54612ff7565b94855f55855f52600160205260405f209360018060a01b0333166bffffffffffffffffffffffff60a01b865416178555600185016bffffffffffffffffffffffff60a01b81541690556001600160401b03881161056a576102638861025a6002880154612bcc565b60028801612f60565b5f88601f81116001146105f8578061028f925f916105ed575b508160011b915f199060031b1c19161790565b60028601555b60038501916001600160401b03821161056a576102bc826102b68554612bcc565b85612f60565b5f90601f8311600114610589576102ea92915f918361057e575b50508160011b915f199060031b1c19161790565b90555b60048301916001600160401b03821161056a5761030e826102b68554612bcc565b5f90601f83116001146105065761033b92915f91836104fb5750508160011b915f199060031b1c19161790565b90555b6005810161034e606435826130d0565b805462ffff001916610100179055608435600682015542600782015560a435600882015560098101805460ff191660011790556064356002146103ef575b50817f47ef1a9540f1f60ecd28bf6b98dec6ac975c756c637257a20cf33a2619c57b1b84602095604051946040865281604087015260608601375f60608286010152601f80199101168301926001868201526060813395030190a3604051908152f35b9260c435156104b65760e4351561047157610104351561042c5760c435600a85015560e435600b85015561010435600d909401939093558161038c565b60405162461bcd60e51b815260206004820152601860248201527f526563757272696e6720636f756e7420726571756972656400000000000000006044820152606490fd5b60405162461bcd60e51b815260206004820152601b60248201527f526563757272696e6720696e74657276616c20726571756972656400000000006044820152606490fd5b60405162461bcd60e51b815260206004820152601960248201527f526563757272696e6720616d6f756e74207265717569726564000000000000006044820152606490fd5b0135905088806102d6565b601f19831691845f5260205f20925f5b8181106105525750908460019594939210610539575b505050811b01905561033e565b01355f19600384901b60f8161c1916905587808061052c565b91936020600181928787013581550195019201610516565b634e487b7160e01b5f52604160045260245ffd5b013590508a806102d6565b601f19831691845f5260205f20925f5b8181106105d557509084600195949392106105bc575b505050811b0190556102ed565b01355f19600384901b60f8161c191690558980806105af565b91936020600181928787013581550195019201610599565b90508801358b61027c565b50600286015f5260205f20905f5b601f198b168110610649575089601f19811610610630575b5050600188811b016002860155610295565b8701355f1960038b901b60f8161c19169055888061061e565b9091602060018192858c013581550193019101610606565b3461014c5761066f36612b9d565b906106786130e8565b805f52600160205260405f2061069860018060a01b038254163314612de5565b60ff600582015460101c1660078110156108685760016106b89114612fbe565b815f5260026020526106cd8360405f20612bb3565b509060038201805460ff81166108305760ff8160081c166107f65760ff19166001908117909155908101549101805460405163a9059cbb60e01b81526001600160a01b03939093166004840152602483015290602081806044810103815f7f00000000000000000000000000000000000000000000000000000000000000006001600160a01b03165af180156107eb576107a99484936107986040937fd33fcd27cbfb73a2d9058c968b560ccb306500bf536133802048489ecc7355e9955f916107bc575b50613005565b5482519182526020820152a26131ff565b60015f51602061325f5f395f51905f5255005b6107de915060203d6020116107e4575b6107d68183612b58565b810190612d91565b89610792565b503d6107cc565b6040513d5f823e3d90fd5b60405162461bcd60e51b8152602060048201526012602482015271135a5b195cdd1bdb9948191a5cdc1d5d195960721b6044820152606490fd5b60405162461bcd60e51b815260206004820152601060248201526f105b1c9958591e481c995b19585cd95960821b6044820152606490fd5b634e487b7160e01b5f52602160045260245ffd5b3461014c57606036600319011261014c576004356024356001600160401b03811161014c576108af903690600401612d2a565b825f93929352600160205260405f20600581015460ff8160081c16906002821015610868576108e2600160ff9314612e1f565b60101c166007811015610868576108f99015612e5d565b546001600160a01b03163314610b43575f8281526003602052604081208054915b828110610ae957505050815f52600360205261094b60405f20936040519261094184612b21565b3384523691612f1b565b9260208201938452604082016044358152606083019042825260808401925f84528054600160401b81101561056a5761098991600182018155612d11565b949094610ad6575184546001600160a01b0319166001600160a01b03919091161784559451805190959060018501906001600160401b03811161056a576109da816109d48454612bcc565b84612f60565b6020601f8211600114610a6a578160049695949392610a1292610a379a9b5f92610a5f5750508160011b915f199060031b1c19161790565b90555b51600285015551600384015551151591019060ff801983541691151516179055565b33907f394b2f46e841d2b670718e98a15dfb76853abc5a8761449c74e9cba62d9015215f80a3005b015190508b806102d6565b601f19821698835f52815f20995f5b818110610abe575099600192849260049998979695610a379c9d10610aa6575b505050811b019055610a15565b01515f1960f88460031b161c191690558a8080610a99565b838301518c556001909b019a60209384019301610a79565b634e487b7160e01b5f525f60045260245ffd5b610af38183612d11565b50546001600160a01b03163314610b0c5760010161091a565b60405162461bcd60e51b815260206004820152600f60248201526e105b1c9958591e48185c1c1b1a5959608a1b6044820152606490fd5b60405162461bcd60e51b8152602060048201526013602482015272436c69656e742063616e6e6f74206170706c7960681b6044820152606490fd5b3461014c57602036600319011261014c57600435610b9a6130e8565b805f52600160205260405f2060018060a01b03600182015416803303610d8d57600582019060ff825460101c16600781101561086857610bda9015612eaf565b600983019081549060ff821615610d545715610d165761ff001916610100179055805462ff000019166201000017905542600c82015580546006909101546040516323b872dd60e01b81526001600160a01b039283166004820152306024820152604481019190915290602090829060649082905f907f0000000000000000000000000000000000000000000000000000000000000000165af19081156107eb575f91610cf7575b5015610cbf577f73edfb7736e2a79d626edb978d46bcd467644e8a44cbe706358022b6a6d361ec5f80a260015f51602061325f5f395f51905f5255005b60405162461bcd60e51b815260206004820152601060248201526f1554d110c81b1bd8dac819985a5b195960821b6044820152606490fd5b610d10915060203d6020116107e4576107d68183612b58565b82610c82565b60405162461bcd60e51b8152602060048201526016602482015275139bc8199c99595b185b98d95c88185cdcda59db995960521b6044820152606490fd5b60405162461bcd60e51b815260206004820152601160248201527010db1a595b9d081b9bdd081cda59db9959607a1b6044820152606490fd5b60405162461bcd60e51b815260206004820152601860248201527f4f6e6c792061737369676e656420667265656c616e63657200000000000000006044820152606490fd5b3461014c57602036600319011261014c576004355f52600360205260405f20805490610dfd82612e98565b91610e0b6040519384612b58565b8083526020830180925f5260205f205f915b838310610ec457848660405191829160208301906020845251809152604083019060408160051b85010192915f905b828210610e5b57505050500390f35b919360019193955060208091603f19898203018552875190848060a01b038251168152608080610e988585015160a08786015260a0850190612b79565b936040810151604085015260608101516060850152015115159101529601920192018594939192610e4c565b60056020600192604051610ed781612b21565b848060a01b038654168152610eed858701612c04565b83820152600286015460408201526003860154606082015260ff60048701541615156080820152815201920192019190610e1d565b3461014c57602036600319011261014c57600435805f52600160205260405f2060ff600582015460101c166007811015610868576001610f629114612fbe565b600f81018054801561102c5782546001600160a01b031633148015611016575b610f8b90612d57565b3314610fd15760085f838160209460107fddcf0b9dbe14d2de9b94c3dcf9ad6f0767698e2b055eb5574b2967eee37f1a3e970192835495869101555555604051908152a2005b60405162461bcd60e51b815260206004820152601a60248201527f43616e6e6f7420617070726f7665206f776e20726571756573740000000000006044820152606490fd5b5060018301546001600160a01b03163314610f82565b60405162461bcd60e51b81526020600482015260146024820152734e6f20657874656e73696f6e2070656e64696e6760601b6044820152606490fd5b3461014c5761014036600319011261014c576004356001600160a01b0381169081900361014c576024356001600160401b03811161014c576110ae903690600401612d2a565b91906044356001600160401b03811161014c576110cf903690600401612d2a565b9290936064356001600160401b03811161014c576110f1903690600401612d2a565b919092608435600381101561014c5760a4359760c4359083156114de573384146114a2576111208a1515613043565b61112b428311613084565b6111355f54612ff7565b5f81815581815260016020819052604090912080546001600160a01b0319908116331782559181018054909216909617905598600285016001600160401b03871161056a5761118e876111888354612bcc565b83612f60565b5f87601f811160011461143c57806111b9925f9161143157508160011b915f199060031b1c19161790565b90555b60038501916001600160401b03821161056a576111dd826102b68554612bcc565b5f90601f83116001146113cd5761120a92915f91836113c25750508160011b915f199060031b1c19161790565b90555b60048301986001600160401b03861161056a5789866112338b986109d460209e54612bcc565b5f601f8211600114611330578160029695949392611288927f47ef1a9540f1f60ecd28bf6b98dec6ac975c756c637257a20cf33a2619c57b1b9b9c5f926113255750508160011b915f199060031b1c19161790565b90555b6005850161129984826130d0565b805462ffff00191690556006850155426007850155600884015560098301805460ff1916600117905514611305575b5080604051946040865281604087015260608601375f60608286010152601f80199101168301925f868201526060813395030190a3604051908152f35b60e435600a82015561010435600b820155600d61012435910155866112c8565b013590508f806102d6565b9091929398601f19831691845f528d5f20925f5b8181106113a8575092600192859260029998967f47ef1a9540f1f60ecd28bf6b98dec6ac975c756c637257a20cf33a2619c57b1b9d9e98961061138f575b505050811b01905561128b565b01355f19600384901b60f8161c191690558e8080611382565b8284013585558e9b50600190940193918f01918f01611344565b013590508d806102d6565b601f19831691845f5260205f20925f5b8181106114195750908460019594939210611400575b505050811b01905561120d565b01355f19600384901b60f8161c191690558c80806113f3565b919360206001819287870135815501950192016113dd565b90508c01358f61027c565b50601f19881690825f528860205f20928d5f905b8282106114875750501061146e575b5050600187811b0190556111bc565b8b01355f1960038a901b60f8161c191690558c8061145f565b84013585556001909401936020938401938c9350018e611450565b60405162461bcd60e51b815260206004820152601460248201527321b0b73737ba103434b932903cb7bab939b2b63360611b6044820152606490fd5b60405162461bcd60e51b815260206004820152601260248201527124b73b30b634b210333932b2b630b731b2b960711b6044820152606490fd5b3461014c57602036600319011261014c57600435805f52600160205260405f20600581019060ff825460101c169060078210156108685761155e60016115799314612fbe565b80546001600160a01b031633149081156115ae575b50612d57565b805462ff00001916620300001790557f98d22f4435fd442cf6b79b75c63d172a99344a7073b97b2e1606aa6be67e3d5f5f80a2005b600101546001600160a01b03163314905084611573565b3461014c576115d336612b9d565b815f52600160205260405f209060ff600583015460101c1660078110156108685760016116009114612fbe565b81546001600160a01b0316331480156116e5575b61161d90612d57565b60088201548111156116b057600f82019081546116775733918290556010929092018290556040805191825260208201929092527fe47cff2ebed8ad4659f468899ab7ebd88febb7485219b360fc15bfac802daf989190a2005b60405162461bcd60e51b8152602060048201526011602482015270457874656e73696f6e2070656e64696e6760781b6044820152606490fd5b60405162461bcd60e51b815260206004820152600d60248201526c26bab9ba103132903630ba32b960991b6044820152606490fd5b5060018201546001600160a01b03163314611614565b3461014c57606036600319011261014c57600435611717612ca4565b6044356117226130e8565b825f52600160205260405f20600581019060ff825460101c166007811015610868576003036118a85780546001600160a01b0385811691168114918215611891575b50501561185b57805462ff000019166204000017905560405163a9059cbb60e01b81526001600160a01b03831660048201526024810182905291602083806044810103815f7f00000000000000000000000000000000000000000000000000000000000000006001600160a01b03165af19283156107eb577f26ce8cc027750550c2d7b41819ec165ab251f2435349e828cf956a0b55bc2e7f9361180e915f9161183c5750613005565b604080516001600160a01b039290921682526020820192909252a260015f51602061325f5f395f51905f5255005b611855915060203d6020116107e4576107d68183612b58565b86610792565b60405162461bcd60e51b815260206004820152600e60248201526d24b73b30b634b2103bb4b73732b960911b6044820152606490fd5b600101546001600160a01b03161490508580611764565b60405162461bcd60e51b815260206004820152600c60248201526b139bdd08191a5cdc1d5d195960a21b6044820152606490fd5b3461014c575f36600319011261014c576040517f00000000000000000000000000000000000000000000000000000000000000006001600160a01b03168152602090f35b3461014c575f36600319011261014c5760205f54604051908152f35b3461014c5761194a36612b9d565b905f52600360205260405f2090815481101561014c5761196991612d11565b5080546001600160a01b031661198160018301612c04565b9160028101549060ff6004600383015492015416906119b2604051958695865260a0602087015260a0860190612b79565b9260408501526060840152151560808301520390f35b3461014c57602036600319011261014c57600435805f52600160205260405f206005810160ff815460101c166007811015610868576001611a099114612fbe565b6008820154421115611b285781546001600160a01b031633148015611b12575b611a3290612d57565b805462ff0000191662060000179055611a4a8261312d565b9081611a78575b827f9325fbfd991d20e53f36adfe94b443a61b400da1d2fa18bc3c8dd6744c10a0fa5f80a2005b5460405163a9059cbb60e01b81526001600160a01b0390911660048201526024810191909152602081806044810103815f7f00000000000000000000000000000000000000000000000000000000000000006001600160a01b03165af180156107eb57611aec915f91611af3575b50612da9565b8180611a51565b611b0c915060203d6020116107e4576107d68183612b58565b83611ae6565b5060018201546001600160a01b03163314611a29565b60405162461bcd60e51b815260206004820152600b60248201526a139bdd08195e1c1a5c995960aa1b6044820152606490fd5b3461014c57602036600319011261014c575f610260604051611b7c81612b3c565b82815282602082015260606040820152606080820152606060808201528260a08201528260c08201528260e08201528261010082015282610120820152826101408201528261016082015282610180820152826101a0820152826101c0820152826101e082015282610200820152826102208201528261024082015201526004355f52600160205260405f2060405190611c1582612b3c565b80546001600160a01b0390811683526001820154166020830152611c3b60028201612c04565b6040830152611c4c60038201612c04565b6060830152611c5d60048201612c04565b6080830152600581015460ff811660038110156108685760a084015260ff8160081c169060028210156108685760ff9160c085015260101c169060078210156108685760109160e084015260068101546101008401526007810154610120840152600881015461014084015260ff6009820154818116151561016086015260081c161515610180840152600a8101546101a0840152600b8101546101c0840152600c8101546101e0840152600d810154610200840152600e810154610220840152600f810154610240840152015461026082015260405180916020825260018060a01b03815116602083015260018060a01b036020820151166040830152610260611dab611d95611d7f604085015161028060608801526102a0870190612b79565b6060850151868203601f19016080880152612b79565b6080840151858203601f190160a0870152612b79565b91611dbe60a082015160c0860190612cea565b611dd060c082015160e0860190612cf7565b611de360e0820151610100860190612d04565b610100810151610120850152610120810151610140850152610140810151610160850152610160810151151561018085015261018081015115156101a08501526101a08101516101c08501526101c08101516101e08501526101e08101516102008501526102008101516102208501526102208101516102408501526102408101518285015201516102808301520390f35b3461014c57602036600319011261014c57600435611e916130e8565b805f52600160205260405f206005810191825460ff8160101c1690600782101561086857611ec3600160ff9314612fbe565b1660038110156108685760020361205e57600c820190611ee98254600b85015490612efa565b421061202d57600e830192835490600d8101938454831015611ffd57611f5592611f1591429055612ff7565b85556001810154600a909101805460405163a9059cbb60e01b81526001600160a01b03909316600484015260248301529091602090839081906044820190565b03815f7f00000000000000000000000000000000000000000000000000000000000000006001600160a01b03165af19081156107eb57611fbf6040927f4ad20d7379197e1bc6eb2ba755385f362d82d03207be3af65895e754b634981f945f916107bc5750613005565b549454948151908152856020820152a25414611fe85760015f51602061325f5f395f51905f5255005b805462ff0000191662020000179055806107a9565b60405162461bcd60e51b8152602060048201526008602482015267105b1b081c185a5960c21b6044820152606490fd5b60405162461bcd60e51b8152602060048201526009602482015268546f6f206561726c7960b81b6044820152606490fd5b60405162461bcd60e51b815260206004820152600d60248201526c4e6f7420726563757272696e6760981b6044820152606490fd5b3461014c57602036600319011261014c576004355f9081526001602081905260409091208054918101546001600160a01b0390811660a052909116906120db60028201612c04565b60c0526120ea60038201612c04565b610100526120fa60048201612c04565b916005820154926006830154600784015460088501546009860154600a87015491600b88015493600c89015495600d8a015497600e8b015499600f8c01549b6010015460805260405160e05260e0515260a05160e0516020015260e051604001610280905260e0516102800160c0519061217391612b79565b60e051810360e05160600152610100519061218d91612b79565b60e051810360e051608001526121a291612b79565b9a60e05160a00160ff8216906121b791612cea565b60e05160c0018160081c60ff16906121ce91612cf7565b60e05160e0019060101c60ff16906121e591612d04565b60e051610100015260e051610120015260e051610140015260ff8116151560e051610160015260081c60ff16151560e051610180015260e0516101a0015260e0516101c0015260e0516101e0015260e051610200015260e051610220015260e051610240015260805160e051610260015260e051900360e051f35b3461014c57608036600319011261014c576004356024356001600160401b03811161014c57612293903690600401612cba565b906044356001600160401b03811161014c576122b3903690600401612cba565b6064929192356001600160401b03811161014c576122d5903690600401612cba565b949091865f52600160205260405f20956122f960018060a01b038854163314612de5565b60ff600588015460101c166007811015610868576123179015612eaf565b818314806125e6575b156125b057969291905f959495975f96601e1981360301905b83891061239d578a60068b01540361234d57005b60405162461bcd60e51b815260206004820152602260248201527f4d696c6573746f6e6520616d6f756e7473206d75737420657175616c20746f74604482015261185b60f21b6064820152608490fd5b9091929394959697996123bc906123b58c878c612eea565b3590612efa565b99875f52600260205260405f208682101561259c578160051b8301358481121561014c578301908135916001600160401b03831161014c5760200191803603831361014c57899261243461241e868f612417828e8e93612eea565b3597612eea565b35916040519361242d85612b21565b3691612f1b565b8252602082019384526040820190815260608201935f855260808301935f85528054600160401b81101561056a5761247191600182018155612bb3565b939093610ad657518051906001600160401b03821161056a5761249e826124988754612bcc565b87612f60565b602090601f831160011461252d57926124da8360019a999897946124ff97946003975f926125225750508160011b915f199060031b1c19161790565b83555b51888301555160028201550192511515839060ff801983541691151516179055565b51815461ff00191690151560081b61ff0016179055019796959493929190612339565b015190505f806102d6565b90601f19831691865f52815f20925f5b8181106125845750936124ff96936003969360019c9b9a999693838e951061256d575b505050811b0183556124dd565b01515f1983891b60f8161c191690555f8080612560565b9293602060018192878601518155019501930161253d565b634e487b7160e01b5f52603260045260245ffd5b60405162461bcd60e51b815260206004820152600e60248201526d082e4e4c2f240dad2e6dac2e8c6d60931b6044820152606490fd5b50808214612320565b3461014c57602036600319011261014c576004355f52600260205260405f2080549061261a82612e98565b916126286040519384612b58565b8083526020830180925f5260205f205f915b8383106126dc57848660405191829160208301906020845251809152604083019060408160051b85010192915f905b82821061267857505050500390f35b919360019193955060208091603f198982030185528751906080806126a6845160a0855260a0850190612b79565b93858101518685015260408101516040850152606081015115156060850152015115159101529601920192018594939192612669565b600460206001926040516126ef81612b21565b6126f886612c04565b815284860154838201526002860154604082015260ff60038701548181161515606084015260081c161515608082015281520192019201919061263a565b3461014c57604036600319011261014c57600435612752612ca4565b815f52600160205260405f209161277360018060a01b038454163314612de5565b600583015460ff8160081c1690600282101561086857612797600160ff9314612e1f565b60101c16600781101561086857906127b0849215612e5d565b5f8181526003602052604081206001600160a01b0390941693909290835b815481101561289c57856127e28284612d11565b50546001600160a01b0316146127fa576001016127ce565b60049293945061280991612d11565b5001600160ff1982541617905560015b156128575760010180546001600160a01b031916831790557f038b6dd13ab376cd96a6924f79dde494c7fbb5ea9f8c950b668d934645995cfd5f80a3005b60405162461bcd60e51b815260206004820152601860248201527f467265656c616e63657220646964206e6f74206170706c7900000000000000006044820152606490fd5b50509091612819565b3461014c57602036600319011261014c576004356128c16130e8565b805f52600160205260405f2060018060a01b0381541633148015612a34575b6128e990612d57565b6005810160ff815460101c1690600782101590816108685782158015612a27575b156129f257805462ff000019166205000017905561086857600114612962575b507f2d5f5ed000d42aa6f6fc13400f7d7161cd1bea793fec354b11e3451f9f2b07c35f80a260015f51602061325f5f395f51905f5255005b61296b8261312d565b9081612978575b5061292a565b5460405163a9059cbb60e01b81526001600160a01b0390911660048201526024810191909152602081806044810103815f7f00000000000000000000000000000000000000000000000000000000000000006001600160a01b03165af180156107eb576129eb915f91611af35750612da9565b8180612972565b60405162461bcd60e51b815260206004820152600d60248201526c10d85b9b9bdd0818d85b98d95b609a1b6044820152606490fd5b505f91506001831461290a565b5060018101546001600160a01b031633146128e0565b3461014c57612a5836612b9d565b905f52600260205260405f20805482101561014c57612aac91612a7a91612bb3565b50612a8481612c04565b9060ff600182015491600360028201549101549060405195869560a0875260a0870190612b79565b93602086015260408501528181161515606085015260081c16151560808301520390f35b3461014c575f36600319011261014c57612b1d604051612af1604082612b58565b600b81526a1898d7dd8c585b5c1d994d60aa1b6020820152604051918291602083526020830190612b79565b0390f35b60a081019081106001600160401b0382111761056a57604052565b61028081019081106001600160401b0382111761056a57604052565b90601f801991011681019081106001600160401b0382111761056a57604052565b805180835260209291819084018484015e5f828201840152601f01601f1916010190565b604090600319011261014c576004359060243590565b805482101561259c575f5260205f209060021b01905f90565b90600182811c92168015612bfa575b6020831014612be657565b634e487b7160e01b5f52602260045260245ffd5b91607f1691612bdb565b9060405191825f825492612c1784612bcc565b8084529360018116908115612c825750600114612c3e575b50612c3c92500383612b58565b565b90505f9291925260205f20905f915b818310612c66575050906020612c3c928201015f612c2f565b6020919350806001915483858901015201910190918492612c4d565b905060209250612c3c94915060ff191682840152151560051b8201015f612c2f565b602435906001600160a01b038216820361014c57565b9181601f8401121561014c578235916001600160401b03831161014c576020808501948460051b01011161014c57565b9060038210156108685752565b9060028210156108685752565b9060078210156108685752565b805482101561259c575f52600560205f20910201905f90565b9181601f8401121561014c578235916001600160401b03831161014c576020838186019501011161014c57565b15612d5e57565b60405162461bcd60e51b815260206004820152600b60248201526a4e6f74206120706172747960a81b6044820152606490fd5b9081602091031261014c5751801515810361014c5790565b15612db057565b60405162461bcd60e51b815260206004820152600d60248201526c1499599d5b990819985a5b1959609a1b6044820152606490fd5b15612dec57565b60405162461bcd60e51b815260206004820152600b60248201526a13db9b1e4818db1a595b9d60aa1b6044820152606490fd5b15612e2657565b60405162461bcd60e51b815260206004820152600f60248201526e2737ba1030b71037b832b7103537b160891b6044820152606490fd5b15612e6457565b60405162461bcd60e51b815260206004820152600c60248201526b2537b1103737ba1037b832b760a11b6044820152606490fd5b6001600160401b03811161056a5760051b60200190565b15612eb657565b60405162461bcd60e51b815260206004820152600c60248201526b139bdd081c1c9bdc1bdcd95960a21b6044820152606490fd5b919081101561259c5760051b0190565b91908201809211612f0757565b634e487b7160e01b5f52601160045260245ffd5b9291926001600160401b03821161056a5760405191612f44601f8201601f191660200184612b58565b82948184528183011161014c578281602093845f960137010152565b919091601f8311612f71575b505050565b818311612f7d57505050565b5f5260205f206020601f830160051c9210612fb6575b81601f9101920160051c03905f5b82811015612f6c575f82820155600101612fa1565b5f9150612f93565b15612fc557565b60405162461bcd60e51b815260206004820152600a6024820152694e6f742061637469766560b01b6044820152606490fd5b5f198114612f075760010190565b1561300c57565b60405162461bcd60e51b815260206004820152600f60248201526e151c985b9cd9995c8819985a5b1959608a1b6044820152606490fd5b1561304a57565b60405162461bcd60e51b81526020600482015260126024820152710416d6f756e74206d757374206265203e20360741b6044820152606490fd5b1561308b57565b60405162461bcd60e51b815260206004820152601a60248201527f446561646c696e65206d75737420626520696e206675747572650000000000006044820152606490fd5b9060038110156108685760ff80198354169116179055565b60025f51602061325f5f395f51905f5254146131115760025f51602061325f5f395f51905f5255565b633ee5aeb560e01b5f5260045ffd5b91908203918211612f0757565b805f52600160205260405f209060ff600583015416600381101561086857600181036131c557505f52600260205260405f20905f915f908054915b82811061318357505050906006613180920154613120565b90565b60ff60036131918385612bb3565b500154166131a2575b600101613168565b936131bd600191826131b48886612bb3565b50015490612efa565b94905061319a565b60029150146131d5576006015490565b600681015490600a600e82015491015490818102918183041490151715612f075761318091613120565b5f8181526002602052604081208054915b828110613239575050505f526001602052600560405f20016202000062ff000019825416179055565b60ff60036132478385612bb3565b500154161561325857600101613210565b5050505056fe9b779b17422d0df92223018b32b4d1fa46e071723d6817e2486d003becc55f00a2646970667358221220e6fae9d87a6168827ec173794c4c492574a3a576f1115d85487bb12ea13f4a6664736f6c63430008210033","linkReferences":{}},"methodIdentifiers":{"BUILDER_CODE()":"12550e1e","USDC()":"89a30271","addMilestones(uint256,string[],uint256[],uint256[])":"460ff8c4","applications(uint256,uint256)":"7a870b63","applyForJob(uint256,string,uint256)":"d1a62838","approveExtension(uint256)":"aedf6098","cancelContract(uint256)":"28047450","contractCount()":"8736381a","contracts(uint256)":"474da79a","getApplicationCount(uint256)":"fadd2b69","getApplications(uint256)":"bc8c937d","getContract(uint256)":"6ebc8c86","getMilestones(uint256)":"42c549c0","markExpired(uint256)":"77fd00c5","milestones(uint256,uint256)":"1c376c63","postOpenJob(string,string,string,uint8,uint256,uint256,uint256,uint256,uint256)":"f3810240","proposeDirectContract(address,string,string,string,uint8,uint256,uint256,uint256,uint256,uint256)":"ad9645f8","raiseDispute(uint256)":"a5c1674e","releaseMilestone(uint256,uint256)":"dbaf0910","releaseRecurringPayment(uint256)":"4df7dcf2","requestExtension(uint256,uint256)":"9f369aa9","resolveDispute(uint256,address,uint256)":"9c17e439","selectFreelancer(uint256,address)":"380deabc","signAndActivate(uint256)":"c611001d"},"id":19}