{"abi":[{"type":"constructor","inputs":[{"name":"_usdc","type":"address","internalType":"address"}],"stateMutability":"nonpayable"},{"type":"function","name":"BUILDER_CODE","inputs":[],"outputs":[{"name":"","type":"string","internalType":"string"}],"stateMutability":"view"},{"type":"function","name":"USDC","inputs":[],"outputs":[{"name":"","type":"address","internalType":"contract IERC20"}],"stateMutability":"view"},{"type":"function","name":"addMilestones","inputs":[{"name":"_contractId","type":"uint256","internalType":"uint256"},{"name":"_descriptions","type":"string[]","internalType":"string[]"},{"name":"_amounts","type":"uint256[]","internalType":"uint256[]"},{"name":"_deadlines","type":"uint256[]","internalType":"uint256[]"}],"outputs":[],"stateMutability":"nonpayable"},{"type":"function","name":"approveExtension","inputs":[{"name":"_contractId","type":"uint256","internalType":"uint256"}],"outputs":[],"stateMutability":"nonpayable"},{"type":"function","name":"cancelContract","inputs":[{"name":"_contractId","type":"uint256","internalType":"uint256"}],"outputs":[],"stateMutability":"nonpayable"},{"type":"function","name":"contractCount","inputs":[],"outputs":[{"name":"","type":"uint256","internalType":"uint256"}],"stateMutability":"view"},{"type":"function","name":"contracts","inputs":[{"name":"","type":"uint256","internalType":"uint256"}],"outputs":[{"name":"client","type":"address","internalType":"address"},{"name":"freelancer","type":"address","internalType":"address"},{"name":"title","type":"string","internalType":"string"},{"name":"description","type":"string","internalType":"string"},{"name":"paymentType","type":"uint8","internalType":"enum WorkChainEscrow.PaymentType"},{"name":"status","type":"uint8","internalType":"enum WorkChainEscrow.ContractStatus"},{"name":"totalAmount","type":"uint256","internalType":"uint256"},{"name":"createdAt","type":"uint256","internalType":"uint256"},{"name":"deadline","type":"uint256","internalType":"uint256"},{"name":"clientSigned","type":"bool","internalType":"bool"},{"name":"freelancerSigned","type":"bool","internalType":"bool"},{"name":"recurringAmount","type":"uint256","internalType":"uint256"},{"name":"recurringInterval","type":"uint256","internalType":"uint256"},{"name":"lastPaymentAt","type":"uint256","internalType":"uint256"},{"name":"recurringCount","type":"uint256","internalType":"uint256"},{"name":"recurringPaid","type":"uint256","internalType":"uint256"},{"name":"extensionRequestedBy","type":"uint256","internalType":"uint256"},{"name":"proposedDeadline","type":"uint256","internalType":"uint256"}],"stateMutability":"view"},{"type":"function","name":"getContract","inputs":[{"name":"_contractId","type":"uint256","internalType":"uint256"}],"outputs":[{"name":"","type":"tuple","internalType":"struct WorkChainEscrow.WorkContract","components":[{"name":"client","type":"address","internalType":"address"},{"name":"freelancer","type":"address","internalType":"address"},{"name":"title","type":"string","internalType":"string"},{"name":"description","type":"string","internalType":"string"},{"name":"paymentType","type":"uint8","internalType":"enum WorkChainEscrow.PaymentType"},{"name":"status","type":"uint8","internalType":"enum WorkChainEscrow.ContractStatus"},{"name":"totalAmount","type":"uint256","internalType":"uint256"},{"name":"createdAt","type":"uint256","internalType":"uint256"},{"name":"deadline","type":"uint256","internalType":"uint256"},{"name":"clientSigned","type":"bool","internalType":"bool"},{"name":"freelancerSigned","type":"bool","internalType":"bool"},{"name":"recurringAmount","type":"uint256","internalType":"uint256"},{"name":"recurringInterval","type":"uint256","internalType":"uint256"},{"name":"lastPaymentAt","type":"uint256","internalType":"uint256"},{"name":"recurringCount","type":"uint256","internalType":"uint256"},{"name":"recurringPaid","type":"uint256","internalType":"uint256"},{"name":"extensionRequestedBy","type":"uint256","internalType":"uint256"},{"name":"proposedDeadline","type":"uint256","internalType":"uint256"}]}],"stateMutability":"view"},{"type":"function","name":"getMilestoneCount","inputs":[{"name":"_contractId","type":"uint256","internalType":"uint256"}],"outputs":[{"name":"","type":"uint256","internalType":"uint256"}],"stateMutability":"view"},{"type":"function","name":"getMilestones","inputs":[{"name":"_contractId","type":"uint256","internalType":"uint256"}],"outputs":[{"name":"","type":"tuple[]","internalType":"struct WorkChainEscrow.Milestone[]","components":[{"name":"description","type":"string","internalType":"string"},{"name":"amount","type":"uint256","internalType":"uint256"},{"name":"deadline","type":"uint256","internalType":"uint256"},{"name":"released","type":"bool","internalType":"bool"},{"name":"disputed","type":"bool","internalType":"bool"}]}],"stateMutability":"view"},{"type":"function","name":"markExpired","inputs":[{"name":"_contractId","type":"uint256","internalType":"uint256"}],"outputs":[],"stateMutability":"nonpayable"},{"type":"function","name":"milestones","inputs":[{"name":"","type":"uint256","internalType":"uint256"},{"name":"","type":"uint256","internalType":"uint256"}],"outputs":[{"name":"description","type":"string","internalType":"string"},{"name":"amount","type":"uint256","internalType":"uint256"},{"name":"deadline","type":"uint256","internalType":"uint256"},{"name":"released","type":"bool","internalType":"bool"},{"name":"disputed","type":"bool","internalType":"bool"}],"stateMutability":"view"},{"type":"function","name":"proposeContract","inputs":[{"name":"_freelancer","type":"address","internalType":"address"},{"name":"_title","type":"string","internalType":"string"},{"name":"_description","type":"string","internalType":"string"},{"name":"_paymentType","type":"uint8","internalType":"enum WorkChainEscrow.PaymentType"},{"name":"_totalAmount","type":"uint256","internalType":"uint256"},{"name":"_deadline","type":"uint256","internalType":"uint256"},{"name":"_recurringAmount","type":"uint256","internalType":"uint256"},{"name":"_recurringInterval","type":"uint256","internalType":"uint256"},{"name":"_recurringCount","type":"uint256","internalType":"uint256"}],"outputs":[{"name":"","type":"uint256","internalType":"uint256"}],"stateMutability":"nonpayable"},{"type":"function","name":"raiseDispute","inputs":[{"name":"_contractId","type":"uint256","internalType":"uint256"}],"outputs":[],"stateMutability":"nonpayable"},{"type":"function","name":"releaseMilestone","inputs":[{"name":"_contractId","type":"uint256","internalType":"uint256"},{"name":"_milestoneIndex","type":"uint256","internalType":"uint256"}],"outputs":[],"stateMutability":"nonpayable"},{"type":"function","name":"releaseRecurringPayment","inputs":[{"name":"_contractId","type":"uint256","internalType":"uint256"}],"outputs":[],"stateMutability":"nonpayable"},{"type":"function","name":"requestExtension","inputs":[{"name":"_contractId","type":"uint256","internalType":"uint256"},{"name":"_newDeadline","type":"uint256","internalType":"uint256"}],"outputs":[],"stateMutability":"nonpayable"},{"type":"function","name":"resolveDispute","inputs":[{"name":"_contractId","type":"uint256","internalType":"uint256"},{"name":"_winner","type":"address","internalType":"address"},{"name":"_amount","type":"uint256","internalType":"uint256"}],"outputs":[],"stateMutability":"nonpayable"},{"type":"function","name":"signAndActivate","inputs":[{"name":"_contractId","type":"uint256","internalType":"uint256"}],"outputs":[],"stateMutability":"nonpayable"},{"type":"event","name":"ContractActivated","inputs":[{"name":"contractId","type":"uint256","indexed":true,"internalType":"uint256"}],"anonymous":false},{"type":"event","name":"ContractCancelled","inputs":[{"name":"contractId","type":"uint256","indexed":true,"internalType":"uint256"}],"anonymous":false},{"type":"event","name":"ContractDisputed","inputs":[{"name":"contractId","type":"uint256","indexed":true,"internalType":"uint256"}],"anonymous":false},{"type":"event","name":"ContractExpired","inputs":[{"name":"contractId","type":"uint256","indexed":true,"internalType":"uint256"}],"anonymous":false},{"type":"event","name":"ContractProposed","inputs":[{"name":"contractId","type":"uint256","indexed":true,"internalType":"uint256"},{"name":"client","type":"address","indexed":true,"internalType":"address"},{"name":"freelancer","type":"address","indexed":true,"internalType":"address"},{"name":"title","type":"string","indexed":false,"internalType":"string"}],"anonymous":false},{"type":"event","name":"ContractResolved","inputs":[{"name":"contractId","type":"uint256","indexed":true,"internalType":"uint256"},{"name":"winner","type":"address","indexed":false,"internalType":"address"},{"name":"amount","type":"uint256","indexed":false,"internalType":"uint256"}],"anonymous":false},{"type":"event","name":"ContractSigned","inputs":[{"name":"contractId","type":"uint256","indexed":true,"internalType":"uint256"},{"name":"signer","type":"address","indexed":false,"internalType":"address"}],"anonymous":false},{"type":"event","name":"ExtensionApproved","inputs":[{"name":"contractId","type":"uint256","indexed":true,"internalType":"uint256"},{"name":"newDeadline","type":"uint256","indexed":false,"internalType":"uint256"}],"anonymous":false},{"type":"event","name":"ExtensionRequested","inputs":[{"name":"contractId","type":"uint256","indexed":true,"internalType":"uint256"},{"name":"requester","type":"address","indexed":false,"internalType":"address"},{"name":"proposedDeadline","type":"uint256","indexed":false,"internalType":"uint256"}],"anonymous":false},{"type":"event","name":"MilestoneDisputed","inputs":[{"name":"contractId","type":"uint256","indexed":true,"internalType":"uint256"},{"name":"milestoneIndex","type":"uint256","indexed":false,"internalType":"uint256"}],"anonymous":false},{"type":"event","name":"MilestoneReleased","inputs":[{"name":"contractId","type":"uint256","indexed":true,"internalType":"uint256"},{"name":"milestoneIndex","type":"uint256","indexed":false,"internalType":"uint256"},{"name":"amount","type":"uint256","indexed":false,"internalType":"uint256"}],"anonymous":false},{"type":"event","name":"RecurringPaymentReleased","inputs":[{"name":"contractId","type":"uint256","indexed":true,"internalType":"uint256"},{"name":"amount","type":"uint256","indexed":false,"internalType":"uint256"},{"name":"periodNumber","type":"uint256","indexed":false,"internalType":"uint256"}],"anonymous":false},{"type":"error","name":"ReentrancyGuardReentrantCall","inputs":[]}],"bytecode":{"object":"0x60a0346100ba57601f6126f638819003918201601f19168301916001600160401b038311848410176100be578084926020946040528339810103126100ba57516001600160a01b038116908190036100ba5760017f9b779b17422d0df92223018b32b4d1fa46e071723d6817e2486d003becc55f005560805260405161262390816100d382396080518181816101b6015281816103c80152818161099a01528181610ae801528181610c14015281816110650152611f060152f35b5f80fd5b634e487b7160e01b5f52604160045260245ffdfe60a06040526004361015610011575f80fd5b5f3560e01c806312550e1e146120295780631c376c6314611fa35780632804745014611df65780633e878e5c146118cc57806342c549c01461177a578063460ff8c414611361578063474da79a146111e85780634df7dcf214610f805780636ebc8c8614610ccc57806377fd00c514610b335780638736381a14610b1757806389a3027114610ad35780639c17e439146108e35780639f369aa914610791578063a5c1674e146106e6578063aedf6098146105a0578063c2010e5014610576578063c611001d146103095763dbaf0910146100ea575f80fd5b34610305576100f8366120f6565b90610101612459565b805f52600160205260405f2061012160018060a01b038254163314612382565b60ff600482015460081c1660078110156102f157600161014191146123d9565b815f5260026020526101568360405f2061210c565b509060038201805460ff81166102b95760ff8160081c1661027f5760ff19166001908117909155908101549101805460405163a9059cbb60e01b81526001600160a01b03939093166004840152602483015290602081806044810103815f7f00000000000000000000000000000000000000000000000000000000000000006001600160a01b03165af18015610274576102329484936102216040937fd33fcd27cbfb73a2d9058c968b560ccb306500bf536133802048489ecc7355e9955f91610245575b5061241b565b5482519182526020820152a2612570565b60015f5160206125ce5f395f51905f5255005b610267915060203d60201161026d575b61025f81836120b1565b8101906122ae565b5f61021b565b503d610255565b6040513d5f823e3d90fd5b60405162461bcd60e51b8152602060048201526012602482015271135a5b195cdd1bdb9948191a5cdc1d5d195960721b6044820152606490fd5b60405162461bcd60e51b815260206004820152601060248201526f105b1c9958591e481c995b19585cd95960821b6044820152606490fd5b634e487b7160e01b5f52602160045260245ffd5b5f80fd5b3461030557602036600319011261030557600435610325612459565b805f52600160205260405f2060018060a01b036001820154163303610531576004810160ff815460081c1660078110156102f1576104f45760088201805460ff8116156104b7576101009061ff00191617905561010061ff001982541617905542600b820155600560018060a01b03825416910154604051916323b872dd60e01b8352600483015230602483015260448201526020816064815f60018060a01b037f0000000000000000000000000000000000000000000000000000000000000000165af1908115610274575f91610498575b501561046057807fcd3b1fcca80f9caae633c3e13546995d3810e561957af92839f070c46571942c6020604051338152a27f73edfb7736e2a79d626edb978d46bcd467644e8a44cbe706358022b6a6d361ec5f80a260015f5160206125ce5f395f51905f5255005b60405162461bcd60e51b815260206004820152601060248201526f1554d110c81b1bd8dac819985a5b195960821b6044820152606490fd5b6104b1915060203d60201161026d5761025f81836120b1565b826103f8565b60405162461bcd60e51b815260206004820152601560248201527410db1a595b9d081a185cc81b9bdd081cda59db9959605a1b6044820152606490fd5b60405162461bcd60e51b81526020600482015260156024820152744e6f7420696e2070726f706f73656420737461746560581b6044820152606490fd5b60405162461bcd60e51b815260206004820152601860248201527f4f6e6c7920667265656c616e6365722063616e207369676e00000000000000006044820152606490fd5b34610305576020366003190112610305576004355f526002602052602060405f2054604051908152f35b3461030557602036600319011261030557600435805f52600160205260405f2060ff600482015460081c1660078110156102f15760016105e091146123d9565b600e8101805480156106aa5782546001600160a01b031633148015610694575b61060990612274565b331461064f5760075f8381602094600f7fddcf0b9dbe14d2de9b94c3dcf9ad6f0767698e2b055eb5574b2967eee37f1a3e970192835495869101555555604051908152a2005b60405162461bcd60e51b815260206004820152601a60248201527f43616e6e6f7420617070726f7665206f776e20726571756573740000000000006044820152606490fd5b5060018301546001600160a01b03163314610600565b60405162461bcd60e51b81526020600482015260146024820152734e6f20657874656e73696f6e2070656e64696e6760601b6044820152606490fd5b3461030557602036600319011261030557600435805f52600160205260405f20600481019060ff825460081c169060078210156102f15761072c600161074793146123d9565b80546001600160a01b0316331490811561077a575b50612274565b805461ff0019166103001790557f98d22f4435fd442cf6b79b75c63d172a99344a7073b97b2e1606aa6be67e3d5f5f80a2005b600101546001600160a01b03163314905084610741565b346103055761079f366120f6565b815f52600160205260405f209060ff600483015460081c1660078110156102f15760016107cc91146123d9565b81546001600160a01b0316331480156108cd575b6107e990612274565b600782015481111561088857600e8201908154610843573391829055600f929092018290556040805191825260208201929092527fe47cff2ebed8ad4659f468899ab7ebd88febb7485219b360fc15bfac802daf989190a2005b60405162461bcd60e51b815260206004820152601960248201527f457874656e73696f6e20616c72656164792070656e64696e67000000000000006044820152606490fd5b60405162461bcd60e51b815260206004820152601a60248201527f4e657720646561646c696e65206d757374206265206c617465720000000000006044820152606490fd5b5060018201546001600160a01b031633146107e0565b34610305576060366003190112610305576004356024356001600160a01b0381168082036103055760443590610917612459565b835f52600160205260405f20600481019160ff835460081c1660078110156102f157600303610a9f5781546001600160a01b03168114918215610a88575b505015610a4a57805461ff00191661040017905560405163a9059cbb60e01b81526001600160a01b03831660048201526024810182905291602083806044810103815f7f00000000000000000000000000000000000000000000000000000000000000006001600160a01b03165af1928315610274577f26ce8cc027750550c2d7b41819ec165ab251f2435349e828cf956a0b55bc2e7f936109fd915f91610a2b575061241b565b604080516001600160a01b039290921682526020820192909252a260015f5160206125ce5f395f51905f5255005b610a44915060203d60201161026d5761025f81836120b1565b8661021b565b60405162461bcd60e51b815260206004820152601660248201527557696e6e6572206d757374206265206120706172747960501b6044820152606490fd5b600101546001600160a01b03161490508580610955565b60405162461bcd60e51b815260206004820152600c60248201526b139bdd08191a5cdc1d5d195960a21b6044820152606490fd5b34610305575f366003190112610305576040517f00000000000000000000000000000000000000000000000000000000000000006001600160a01b03168152602090f35b34610305575f3660031901126103055760205f54604051908152f35b3461030557602036600319011261030557600435805f52600160205260405f206004810160ff815460081c1660078110156102f1576001610b7491146123d9565b6007820154421115610c915781546001600160a01b031633148015610c7b575b610b9d90612274565b805461ff001916610600179055610bb38261249e565b9081610be1575b827f9325fbfd991d20e53f36adfe94b443a61b400da1d2fa18bc3c8dd6744c10a0fa5f80a2005b5460405163a9059cbb60e01b81526001600160a01b0390911660048201526024810191909152602081806044810103815f7f00000000000000000000000000000000000000000000000000000000000000006001600160a01b03165af1801561027457610c55915f91610c5c575b506122c6565b8180610bba565b610c75915060203d60201161026d5761025f81836120b1565b83610c4f565b5060018201546001600160a01b03163314610b94565b60405162461bcd60e51b8152602060048201526013602482015272111958591b1a5b99481b9bdd081c185cdcd959606a1b6044820152606490fd5b34610305576020366003190112610305575f610220604051610ced81612095565b828152826020820152606060408201526060808201528260808201528260a08201528260c08201528260e08201528261010082015282610120820152826101408201528261016082015282610180820152826101a0820152826101c0820152826101e08201528261020082015201526004355f52600160205260405f2060405190610d7782612095565b80546001600160a01b0390811683526001820154166020830152610d9d6002820161215d565b6040830152610dae6003820161215d565b6060830152600481015460ff81169060038210156102f15760ff91608085015260081c169060078210156102f157600f9160a0840152600581015460c0840152600681015460e0840152600781015461010084015260ff6008820154818116151561012086015260081c1615156101408401526009810154610160840152600a810154610180840152600b8101546101a0840152600c8101546101c0840152600d8101546101e0840152600e810154610200840152015461022082015260405180916020825260018060a01b03815116602083015260018060a01b036020820151166040830152610220610ecc610eb6604084015161024060608701526102608601906120d2565b6060840151858203601f190160808701526120d2565b91610edf608082015160a086019061225a565b610ef160a082015160c0860190612267565b60c081015160e085015260e0810151610100850152610100810151610120850152610120810151151561014085015261014081015115156101608501526101608101516101808501526101808101516101a08501526101a08101516101c08501526101c08101516101e08501526101e08101516102008501526102008101518285015201516102408301520390f35b3461030557602036600319011261030557600435610f9c612459565b805f52600160205260405f206004810191825460ff8160081c169060078210156102f157610fce600160ff93146123d9565b1660038110156102f1576002036111a357600b820190610ff48254600a850154906123cc565b421061115e57600d830192835490600c8101938454831015611125576110609261102091429055612302565b855560018101546009909101805460405163a9059cbb60e01b81526001600160a01b03909316600484015260248301529091602090839081906044820190565b03815f7f00000000000000000000000000000000000000000000000000000000000000006001600160a01b03165af1908115610274576110ca6040927f4ad20d7379197e1bc6eb2ba755385f362d82d03207be3af65895e754b634981f945f91611106575061241b565b549454948151908152856020820152a254146110f35760015f5160206125ce5f395f51905f5255005b805461ff00191661020017905580610232565b61111f915060203d60201161026d5761025f81836120b1565b8961021b565b60405162461bcd60e51b8152602060048201526011602482015270416c6c207061796d656e7473206d61646560781b6044820152606490fd5b60405162461bcd60e51b815260206004820152601c60248201527f5061796d656e7420696e74657276616c206e6f742072656163686564000000006044820152606490fd5b60405162461bcd60e51b815260206004820152601860248201527f4e6f74206120726563757272696e6720636f6e747261637400000000000000006044820152606490fd5b34610305576020366003190112610305576004355f9081526001602081905260409091208054918101546001600160a01b0390811692169061122c6002820161215d565b926112396003830161215d565b93600483015494600584015460068501546007860154600887015490600988015492600a89015494600b8a015496600c8b015498600d8c01549a600e8d01549c600f01549d60405160805260805152608051602001526080516040016102409052608051610240016112aa916120d2565b6080518103608051606001526112bf916120d2565b9b60805160800160ff8216906112d49161225a565b60805160a0019060081c60ff16906112eb91612267565b60805160c0015260805160e00152608051610100015260ff81161515608051610120015260081c60ff1615156080516101400152608051610160015260805161018001526080516101a001526080516101c001526080516101e00152608051610200015260805161022001526080519003608051f35b34610305576080366003190112610305576004356024356001600160401b0381116103055761139490369060040161222a565b6044356001600160401b038111610305576113b390369060040161222a565b92906064356001600160401b038111610305576113d490369060040161222a565b865f95929552600160205260405f20956113f860018060a01b038854163314612382565b60ff600488015460081c1660078110156102f157611735578083148061172c575b156116f657969291905f959495975f96601e1981360301905b828910611496578a60058b01540361144657005b60405162461bcd60e51b815260206004820152602260248201527f4d696c6573746f6e6520616d6f756e7473206d75737420657175616c20746f74604482015261185b60f21b6064820152608490fd5b9091929394959697996114b5906114ae8c868a6123bc565b35906123cc565b99875f52600260205260405f20868210156116e2578160051b830135848112156103055783019081356001600160401b0381116103055760208301908036038213610305578c93611514868b61150d8f8d84916123bc565b35976123bc565b3591604051936115238561207a565b6040519261153b601f8401601f1916602001856120b1565b828452602083369201011161030557815f9260209283860137830101528252602082019384526040820190815260608201935f855260808301935f85528054680100000000000000008110156116bb5761159a9160018201815561210c565b9390936116cf57518051906001600160401b0382116116bb576115c7826115c18754612125565b87612324565b602090601f831160011461164f57826003959360019a9998979593611601935f92611644575b50508160011b915f199060031b1c19161790565b83555b5187830155516002820155019151151560ff8019845416911617825551151561ff0082549160081b169061ff001916179055019796959493929190611432565b015190505f806115ed565b90601f19831691865f52815f20925f5b8181106116a357509260019a9998979593928592600398968d951061168c575b505050811b018355611604565b01515f1983891b60f8161c191690555f808061167f565b9293602060018192878601518155019501930161165f565b634e487b7160e01b5f52604160045260245ffd5b634e487b7160e01b5f525f60045260245ffd5b634e487b7160e01b5f52603260045260245ffd5b60405162461bcd60e51b815260206004820152600e60248201526d082e4e4c2f240dad2e6dac2e8c6d60931b6044820152606490fd5b50818114611419565b60405162461bcd60e51b815260206004820152601760248201527f436f6e747261637420616c7265616479206163746976650000000000000000006044820152606490fd5b34610305576020366003190112610305576004355f52600260205260405f208054906001600160401b0382116116bb57604051916117be60208260051b01846120b1565b8083526020830180925f5260205f205f915b83831061187257848660405191829160208301906020845251809152604083019060408160051b85010192915f905b82821061180e57505050500390f35b919360019193955060208091603f1989820301855287519060808061183c845160a0855260a08501906120d2565b938581015186850152604081015160408501526060810151151560608501520151151591015296019201920185949391926117ff565b600460206001926040516118858161207a565b61188e8661215d565b815284860154838201526002860154604082015260ff60038701548181161515606084015260081c16151560808201528152019201920191906117d0565b3461030557610120366003190112610305576004356001600160a01b0381168103610305576024356001600160401b038111610305576119109036906004016121fd565b906044356001600160401b038111610305576119309036906004016121fd565b60036064949294351015610305576001600160a01b03851615611dbc576001600160a01b0385163314611d805760843515611d46574260a4351115611d01576119795f54612302565b5f81815581815260016020819052604090912080546001600160a01b03199081163317825591810180549092166001600160a01b03891617909155909490916001600160401b0384116116bb576119e0846119d76002860154612125565b60028601612324565b5f84601f8111600114611c985780611a0c925f91611c8d575b508160011b915f199060031b1c19161790565b60028401555b60038301916001600160401b0382116116bb57611a3982611a338554612125565b85612324565b5f90601f8311600114611c2957611a6692915f9183611c1e5750508160011b915f199060031b1c19161790565b90555b60048101805461ffff191660643560ff811691909117909155608435600583015542600683015560a435600783015560088201805460ff19166001179055600214611b12575b50827fd208684f3de39b94367de86673be795f94caba88b82fed0aeefa8ec9a239d6c16020958360405195888752818988015260408701375f6040858701015260018060a01b0316936040813395601f80199101168101030190a4604051908152f35b9360c43515611bd95760e43515611b94576101043515611b4f5760c435600986015560e435600a86015561010435600c9095019490945582611aaf565b60405162461bcd60e51b815260206004820152601860248201527f526563757272696e6720636f756e7420726571756972656400000000000000006044820152606490fd5b60405162461bcd60e51b815260206004820152601b60248201527f526563757272696e6720696e74657276616c20726571756972656400000000006044820152606490fd5b60405162461bcd60e51b815260206004820152601960248201527f526563757272696e6720616d6f756e74207265717569726564000000000000006044820152606490fd5b0135905089806115ed565b601f19831691845f5260205f20925f5b818110611c755750908460019594939210611c5c575b505050811b019055611a69565b01355f19600384901b60f8161c19169055888080611c4f565b91936020600181928787013581550195019201611c39565b90508701358a6119f9565b50600284015f5260205f20905f5b601f1987168110611ce9575085601f19811610611cd0575b5050600184811b016002840155611a12565b8601355f19600387901b60f8161c191690558780611cbe565b9091602060018192858b013581550193019101611ca6565b60405162461bcd60e51b815260206004820152601a60248201527f446561646c696e65206d75737420626520696e206675747572650000000000006044820152606490fd5b60405162461bcd60e51b81526020600482015260126024820152710416d6f756e74206d757374206265203e20360741b6044820152606490fd5b60405162461bcd60e51b815260206004820152601460248201527321b0b73737ba103434b932903cb7bab939b2b63360611b6044820152606490fd5b60405162461bcd60e51b815260206004820152601260248201527124b73b30b634b210333932b2b630b731b2b960711b6044820152606490fd5b3461030557602036600319011261030557600435611e12612459565b805f52600160205260405f2060018060a01b0381541633148015611f8d575b611e3a90612274565b6004810160ff815460081c1660078110156102f1578015908115611f82575b5015611f4d57805461ff001916610500179081905560081c60ff1660078110156102f157600114611ebd575b507f2d5f5ed000d42aa6f6fc13400f7d7161cd1bea793fec354b11e3451f9f2b07c35f80a260015f5160206125ce5f395f51905f5255005b611ec68261249e565b9081611ed3575b50611e85565b5460405163a9059cbb60e01b81526001600160a01b0390911660048201526024810191909152602081806044810103815f7f00000000000000000000000000000000000000000000000000000000000000006001600160a01b03165af1801561027457611f46915f91610c5c57506122c6565b8180611ecd565b60405162461bcd60e51b815260206004820152600d60248201526c10d85b9b9bdd0818d85b98d95b609a1b6044820152606490fd5b600191501484611e59565b5060018101546001600160a01b03163314611e31565b3461030557611fb1366120f6565b905f52600260205260405f2080548210156103055761200591611fd39161210c565b50611fdd8161215d565b9060ff600182015491600360028201549101549060405195869560a0875260a08701906120d2565b93602086015260408501528181161515606085015260081c16151560808301520390f35b34610305575f3660031901126103055761207660405161204a6040826120b1565b600b81526a1898d7dd8c585b5c1d994d60aa1b60208201526040519182916020835260208301906120d2565b0390f35b60a081019081106001600160401b038211176116bb57604052565b61024081019081106001600160401b038211176116bb57604052565b90601f801991011681019081106001600160401b038211176116bb57604052565b805180835260209291819084018484015e5f828201840152601f01601f1916010190565b6040906003190112610305576004359060243590565b80548210156116e2575f5260205f209060021b01905f90565b90600182811c92168015612153575b602083101461213f57565b634e487b7160e01b5f52602260045260245ffd5b91607f1691612134565b9060405191825f82549261217084612125565b80845293600181169081156121db5750600114612197575b50612195925003836120b1565b565b90505f9291925260205f20905f915b8183106121bf575050906020612195928201015f612188565b60209193508060019154838589010152019101909184926121a6565b90506020925061219594915060ff191682840152151560051b8201015f612188565b9181601f84011215610305578235916001600160401b038311610305576020838186019501011161030557565b9181601f84011215610305578235916001600160401b038311610305576020808501948460051b01011161030557565b9060038210156102f15752565b9060078210156102f15752565b1561227b57565b60405162461bcd60e51b815260206004820152600b60248201526a4e6f74206120706172747960a81b6044820152606490fd5b90816020910312610305575180151581036103055790565b156122cd57565b60405162461bcd60e51b815260206004820152600d60248201526c1499599d5b990819985a5b1959609a1b6044820152606490fd5b5f1981146123105760010190565b634e487b7160e01b5f52601160045260245ffd5b919091601f8311612335575b505050565b81831161234157505050565b5f5260205f206020601f830160051c921061237a575b81601f9101920160051c03905f5b82811015612330575f82820155600101612365565b5f9150612357565b1561238957565b60405162461bcd60e51b815260206004820152600b60248201526a13db9b1e4818db1a595b9d60aa1b6044820152606490fd5b91908110156116e25760051b0190565b9190820180921161231057565b156123e057565b60405162461bcd60e51b8152602060048201526013602482015272436f6e7472616374206e6f742061637469766560681b6044820152606490fd5b1561242257565b60405162461bcd60e51b815260206004820152600f60248201526e151c985b9cd9995c8819985a5b1959608a1b6044820152606490fd5b60025f5160206125ce5f395f51905f5254146124825760025f5160206125ce5f395f51905f5255565b633ee5aeb560e01b5f5260045ffd5b9190820391821161231057565b805f52600160205260405f209060ff60048301541660038110156102f1576001810361253657505f52600260205260405f20905f915f908054915b8281106124f4575050509060056124f1920154612491565b90565b60ff6003612502838561210c565b50015416612513575b6001016124d9565b9361252e60019182612525888661210c565b500154906123cc565b94905061250b565b6002915014612546576005015490565b6005810154906009600d82015491015490818102918183041490151715612310576124f191612491565b5f8181526002602052604081208054915b8281106125a8575050505f526001602052600460405f200161020061ff0019825416179055565b60ff60036125b6838561210c565b50015416156125c757600101612581565b5050505056fe9b779b17422d0df92223018b32b4d1fa46e071723d6817e2486d003becc55f00a26469706673582212202514ed5365d2c07cfcb1e992139f93d9d5ef69e0bad6dfab78dca138258c6b6764736f6c63430008210033","linkReferences":{}},"methodIdentifiers":{"BUILDER_CODE()":"12550e1e","USDC()":"89a30271","addMilestones(uint256,string[],uint256[],uint256[])":"460ff8c4","approveExtension(uint256)":"aedf6098","cancelContract(uint256)":"28047450","contractCount()":"8736381a","contracts(uint256)":"474da79a","getContract(uint256)":"6ebc8c86","getMilestoneCount(uint256)":"c2010e50","getMilestones(uint256)":"42c549c0","markExpired(uint256)":"77fd00c5","milestones(uint256,uint256)":"1c376c63","proposeContract(address,string,string,uint8,uint256,uint256,uint256,uint256,uint256)":"3e878e5c","raiseDispute(uint256)":"a5c1674e","releaseMilestone(uint256,uint256)":"dbaf0910","releaseRecurringPayment(uint256)":"4df7dcf2","requestExtension(uint256,uint256)":"9f369aa9","resolveDispute(uint256,address,uint256)":"9c17e439","signAndActivate(uint256)":"c611001d"},"id":19}