{"abi":[{"type":"constructor","inputs":[{"name":"_usdc","type":"address","internalType":"address"},{"name":"_oracle","type":"address","internalType":"address"}],"stateMutability":"nonpayable"},{"type":"function","name":"BUILDER_CODE","inputs":[],"outputs":[{"name":"","type":"string","internalType":"string"}],"stateMutability":"view"},{"type":"function","name":"USDC","inputs":[],"outputs":[{"name":"","type":"address","internalType":"contract IERC20"}],"stateMutability":"view"},{"type":"function","name":"addMilestones","inputs":[{"name":"_contractId","type":"uint256","internalType":"uint256"},{"name":"_descriptions","type":"string[]","internalType":"string[]"},{"name":"_amounts","type":"uint256[]","internalType":"uint256[]"},{"name":"_deadlines","type":"uint256[]","internalType":"uint256[]"}],"outputs":[],"stateMutability":"nonpayable"},{"type":"function","name":"applications","inputs":[{"name":"","type":"uint256","internalType":"uint256"},{"name":"","type":"uint256","internalType":"uint256"}],"outputs":[{"name":"freelancer","type":"address","internalType":"address"},{"name":"coverNote","type":"string","internalType":"string"},{"name":"proposedRate","type":"uint256","internalType":"uint256"},{"name":"appliedAt","type":"uint256","internalType":"uint256"},{"name":"selected","type":"bool","internalType":"bool"}],"stateMutability":"view"},{"type":"function","name":"applyForJob","inputs":[{"name":"_contractId","type":"uint256","internalType":"uint256"},{"name":"_coverNote","type":"string","internalType":"string"},{"name":"_proposedRate","type":"uint256","internalType":"uint256"}],"outputs":[],"stateMutability":"nonpayable"},{"type":"function","name":"approveExtension","inputs":[{"name":"_contractId","type":"uint256","internalType":"uint256"}],"outputs":[],"stateMutability":"nonpayable"},{"type":"function","name":"cancelContract","inputs":[{"name":"_contractId","type":"uint256","internalType":"uint256"}],"outputs":[],"stateMutability":"nonpayable"},{"type":"function","name":"contractCount","inputs":[],"outputs":[{"name":"","type":"uint256","internalType":"uint256"}],"stateMutability":"view"},{"type":"function","name":"contracts","inputs":[{"name":"","type":"uint256","internalType":"uint256"}],"outputs":[{"name":"client","type":"address","internalType":"address"},{"name":"freelancer","type":"address","internalType":"address"},{"name":"title","type":"string","internalType":"string"},{"name":"description","type":"string","internalType":"string"},{"name":"deliverables","type":"string","internalType":"string"},{"name":"category","type":"string","internalType":"string"},{"name":"paymentType","type":"uint8","internalType":"enum WorkChainEscrow.PaymentType"},{"name":"contractType","type":"uint8","internalType":"enum WorkChainEscrow.ContractType"},{"name":"status","type":"uint8","internalType":"enum WorkChainEscrow.ContractStatus"},{"name":"totalAmount","type":"uint256","internalType":"uint256"},{"name":"createdAt","type":"uint256","internalType":"uint256"},{"name":"deadline","type":"uint256","internalType":"uint256"},{"name":"clientSigned","type":"bool","internalType":"bool"},{"name":"freelancerSigned","type":"bool","internalType":"bool"},{"name":"recurringAmount","type":"uint256","internalType":"uint256"},{"name":"recurringInterval","type":"uint256","internalType":"uint256"},{"name":"lastPaymentAt","type":"uint256","internalType":"uint256"},{"name":"recurringCount","type":"uint256","internalType":"uint256"},{"name":"recurringPaid","type":"uint256","internalType":"uint256"},{"name":"extensionRequestedBy","type":"uint256","internalType":"uint256"},{"name":"proposedDeadline","type":"uint256","internalType":"uint256"}],"stateMutability":"view"},{"type":"function","name":"getApplicationCount","inputs":[{"name":"_contractId","type":"uint256","internalType":"uint256"}],"outputs":[{"name":"","type":"uint256","internalType":"uint256"}],"stateMutability":"view"},{"type":"function","name":"getApplications","inputs":[{"name":"_contractId","type":"uint256","internalType":"uint256"}],"outputs":[{"name":"","type":"tuple[]","internalType":"struct WorkChainEscrow.Application[]","components":[{"name":"freelancer","type":"address","internalType":"address"},{"name":"coverNote","type":"string","internalType":"string"},{"name":"proposedRate","type":"uint256","internalType":"uint256"},{"name":"appliedAt","type":"uint256","internalType":"uint256"},{"name":"selected","type":"bool","internalType":"bool"}]}],"stateMutability":"view"},{"type":"function","name":"getContract","inputs":[{"name":"_contractId","type":"uint256","internalType":"uint256"}],"outputs":[{"name":"","type":"tuple","internalType":"struct WorkChainEscrow.WorkContract","components":[{"name":"client","type":"address","internalType":"address"},{"name":"freelancer","type":"address","internalType":"address"},{"name":"title","type":"string","internalType":"string"},{"name":"description","type":"string","internalType":"string"},{"name":"deliverables","type":"string","internalType":"string"},{"name":"category","type":"string","internalType":"string"},{"name":"paymentType","type":"uint8","internalType":"enum WorkChainEscrow.PaymentType"},{"name":"contractType","type":"uint8","internalType":"enum WorkChainEscrow.ContractType"},{"name":"status","type":"uint8","internalType":"enum WorkChainEscrow.ContractStatus"},{"name":"totalAmount","type":"uint256","internalType":"uint256"},{"name":"createdAt","type":"uint256","internalType":"uint256"},{"name":"deadline","type":"uint256","internalType":"uint256"},{"name":"clientSigned","type":"bool","internalType":"bool"},{"name":"freelancerSigned","type":"bool","internalType":"bool"},{"name":"recurringAmount","type":"uint256","internalType":"uint256"},{"name":"recurringInterval","type":"uint256","internalType":"uint256"},{"name":"lastPaymentAt","type":"uint256","internalType":"uint256"},{"name":"recurringCount","type":"uint256","internalType":"uint256"},{"name":"recurringPaid","type":"uint256","internalType":"uint256"},{"name":"extensionRequestedBy","type":"uint256","internalType":"uint256"},{"name":"proposedDeadline","type":"uint256","internalType":"uint256"}]}],"stateMutability":"view"},{"type":"function","name":"getMilestones","inputs":[{"name":"_contractId","type":"uint256","internalType":"uint256"}],"outputs":[{"name":"","type":"tuple[]","internalType":"struct WorkChainEscrow.Milestone[]","components":[{"name":"description","type":"string","internalType":"string"},{"name":"amount","type":"uint256","internalType":"uint256"},{"name":"deadline","type":"uint256","internalType":"uint256"},{"name":"released","type":"bool","internalType":"bool"},{"name":"disputed","type":"bool","internalType":"bool"}]}],"stateMutability":"view"},{"type":"function","name":"markExpired","inputs":[{"name":"_contractId","type":"uint256","internalType":"uint256"}],"outputs":[],"stateMutability":"nonpayable"},{"type":"function","name":"maxContractAmount","inputs":[],"outputs":[{"name":"","type":"uint256","internalType":"uint256"}],"stateMutability":"view"},{"type":"function","name":"milestones","inputs":[{"name":"","type":"uint256","internalType":"uint256"},{"name":"","type":"uint256","internalType":"uint256"}],"outputs":[{"name":"description","type":"string","internalType":"string"},{"name":"amount","type":"uint256","internalType":"uint256"},{"name":"deadline","type":"uint256","internalType":"uint256"},{"name":"released","type":"bool","internalType":"bool"},{"name":"disputed","type":"bool","internalType":"bool"}],"stateMutability":"view"},{"type":"function","name":"oracle","inputs":[],"outputs":[{"name":"","type":"address","internalType":"address"}],"stateMutability":"view"},{"type":"function","name":"owner","inputs":[],"outputs":[{"name":"","type":"address","internalType":"address"}],"stateMutability":"view"},{"type":"function","name":"pause","inputs":[],"outputs":[],"stateMutability":"nonpayable"},{"type":"function","name":"paused","inputs":[],"outputs":[{"name":"","type":"bool","internalType":"bool"}],"stateMutability":"view"},{"type":"function","name":"postOpenJob","inputs":[{"name":"_title","type":"string","internalType":"string"},{"name":"_description","type":"string","internalType":"string"},{"name":"_deliverables","type":"string","internalType":"string"},{"name":"_category","type":"string","internalType":"string"},{"name":"_paymentType","type":"uint8","internalType":"enum WorkChainEscrow.PaymentType"},{"name":"_totalAmount","type":"uint256","internalType":"uint256"},{"name":"_deadline","type":"uint256","internalType":"uint256"},{"name":"_recurringAmount","type":"uint256","internalType":"uint256"},{"name":"_recurringInterval","type":"uint256","internalType":"uint256"},{"name":"_recurringCount","type":"uint256","internalType":"uint256"}],"outputs":[{"name":"","type":"uint256","internalType":"uint256"}],"stateMutability":"nonpayable"},{"type":"function","name":"proposeDirectContract","inputs":[{"name":"_freelancer","type":"address","internalType":"address"},{"name":"_title","type":"string","internalType":"string"},{"name":"_description","type":"string","internalType":"string"},{"name":"_deliverables","type":"string","internalType":"string"},{"name":"_category","type":"string","internalType":"string"},{"name":"_paymentType","type":"uint8","internalType":"enum WorkChainEscrow.PaymentType"},{"name":"_totalAmount","type":"uint256","internalType":"uint256"},{"name":"_deadline","type":"uint256","internalType":"uint256"},{"name":"_recurringAmount","type":"uint256","internalType":"uint256"},{"name":"_recurringInterval","type":"uint256","internalType":"uint256"},{"name":"_recurringCount","type":"uint256","internalType":"uint256"}],"outputs":[{"name":"","type":"uint256","internalType":"uint256"}],"stateMutability":"nonpayable"},{"type":"function","name":"raiseDispute","inputs":[{"name":"_contractId","type":"uint256","internalType":"uint256"}],"outputs":[],"stateMutability":"nonpayable"},{"type":"function","name":"releaseMilestone","inputs":[{"name":"_contractId","type":"uint256","internalType":"uint256"},{"name":"_milestoneIndex","type":"uint256","internalType":"uint256"}],"outputs":[],"stateMutability":"nonpayable"},{"type":"function","name":"releaseRecurringPayment","inputs":[{"name":"_contractId","type":"uint256","internalType":"uint256"}],"outputs":[],"stateMutability":"nonpayable"},{"type":"function","name":"renounceOwnership","inputs":[],"outputs":[],"stateMutability":"nonpayable"},{"type":"function","name":"requestExtension","inputs":[{"name":"_contractId","type":"uint256","internalType":"uint256"},{"name":"_newDeadline","type":"uint256","internalType":"uint256"}],"outputs":[],"stateMutability":"nonpayable"},{"type":"function","name":"resolveDispute","inputs":[{"name":"_contractId","type":"uint256","internalType":"uint256"},{"name":"_winner","type":"address","internalType":"address"},{"name":"_amount","type":"uint256","internalType":"uint256"}],"outputs":[],"stateMutability":"nonpayable"},{"type":"function","name":"selectFreelancer","inputs":[{"name":"_contractId","type":"uint256","internalType":"uint256"},{"name":"_freelancer","type":"address","internalType":"address"}],"outputs":[],"stateMutability":"nonpayable"},{"type":"function","name":"setMaxContractAmount","inputs":[{"name":"_newMax","type":"uint256","internalType":"uint256"}],"outputs":[],"stateMutability":"nonpayable"},{"type":"function","name":"setOracle","inputs":[{"name":"_newOracle","type":"address","internalType":"address"}],"outputs":[],"stateMutability":"nonpayable"},{"type":"function","name":"signAndActivate","inputs":[{"name":"_contractId","type":"uint256","internalType":"uint256"}],"outputs":[],"stateMutability":"nonpayable"},{"type":"function","name":"transferOwnership","inputs":[{"name":"newOwner","type":"address","internalType":"address"}],"outputs":[],"stateMutability":"nonpayable"},{"type":"function","name":"unpause","inputs":[],"outputs":[],"stateMutability":"nonpayable"},{"type":"event","name":"ApplicationSubmitted","inputs":[{"name":"contractId","type":"uint256","indexed":true,"internalType":"uint256"},{"name":"freelancer","type":"address","indexed":true,"internalType":"address"}],"anonymous":false},{"type":"event","name":"ContractActivated","inputs":[{"name":"contractId","type":"uint256","indexed":true,"internalType":"uint256"}],"anonymous":false},{"type":"event","name":"ContractCancelled","inputs":[{"name":"contractId","type":"uint256","indexed":true,"internalType":"uint256"}],"anonymous":false},{"type":"event","name":"ContractDisputed","inputs":[{"name":"contractId","type":"uint256","indexed":true,"internalType":"uint256"}],"anonymous":false},{"type":"event","name":"ContractExpired","inputs":[{"name":"contractId","type":"uint256","indexed":true,"internalType":"uint256"}],"anonymous":false},{"type":"event","name":"ContractProposed","inputs":[{"name":"contractId","type":"uint256","indexed":true,"internalType":"uint256"},{"name":"client","type":"address","indexed":true,"internalType":"address"},{"name":"title","type":"string","indexed":false,"internalType":"string"},{"name":"contractType","type":"uint8","indexed":false,"internalType":"uint8"}],"anonymous":false},{"type":"event","name":"ContractResolved","inputs":[{"name":"contractId","type":"uint256","indexed":true,"internalType":"uint256"},{"name":"winner","type":"address","indexed":false,"internalType":"address"},{"name":"amount","type":"uint256","indexed":false,"internalType":"uint256"}],"anonymous":false},{"type":"event","name":"ExtensionApproved","inputs":[{"name":"contractId","type":"uint256","indexed":true,"internalType":"uint256"},{"name":"newDeadline","type":"uint256","indexed":false,"internalType":"uint256"}],"anonymous":false},{"type":"event","name":"ExtensionRequested","inputs":[{"name":"contractId","type":"uint256","indexed":true,"internalType":"uint256"},{"name":"requester","type":"address","indexed":false,"internalType":"address"},{"name":"proposedDeadline","type":"uint256","indexed":false,"internalType":"uint256"}],"anonymous":false},{"type":"event","name":"FreelancerSelected","inputs":[{"name":"contractId","type":"uint256","indexed":true,"internalType":"uint256"},{"name":"freelancer","type":"address","indexed":true,"internalType":"address"}],"anonymous":false},{"type":"event","name":"MaxAmountUpdated","inputs":[{"name":"oldMax","type":"uint256","indexed":false,"internalType":"uint256"},{"name":"newMax","type":"uint256","indexed":false,"internalType":"uint256"}],"anonymous":false},{"type":"event","name":"MilestoneReleased","inputs":[{"name":"contractId","type":"uint256","indexed":true,"internalType":"uint256"},{"name":"milestoneIndex","type":"uint256","indexed":false,"internalType":"uint256"},{"name":"amount","type":"uint256","indexed":false,"internalType":"uint256"}],"anonymous":false},{"type":"event","name":"OracleUpdated","inputs":[{"name":"oldOracle","type":"address","indexed":true,"internalType":"address"},{"name":"newOracle","type":"address","indexed":true,"internalType":"address"}],"anonymous":false},{"type":"event","name":"OwnershipTransferred","inputs":[{"name":"previousOwner","type":"address","indexed":true,"internalType":"address"},{"name":"newOwner","type":"address","indexed":true,"internalType":"address"}],"anonymous":false},{"type":"event","name":"Paused","inputs":[{"name":"account","type":"address","indexed":false,"internalType":"address"}],"anonymous":false},{"type":"event","name":"RecurringPaymentReleased","inputs":[{"name":"contractId","type":"uint256","indexed":true,"internalType":"uint256"},{"name":"amount","type":"uint256","indexed":false,"internalType":"uint256"},{"name":"periodNumber","type":"uint256","indexed":false,"internalType":"uint256"}],"anonymous":false},{"type":"event","name":"Unpaused","inputs":[{"name":"account","type":"address","indexed":false,"internalType":"address"}],"anonymous":false},{"type":"error","name":"EnforcedPause","inputs":[]},{"type":"error","name":"ExpectedPause","inputs":[]},{"type":"error","name":"OwnableInvalidOwner","inputs":[{"name":"owner","type":"address","internalType":"address"}]},{"type":"error","name":"OwnableUnauthorizedAccount","inputs":[{"name":"account","type":"address","internalType":"address"}]},{"type":"error","name":"ReentrancyGuardReentrantCall","inputs":[]}],"bytecode":{"object":"0x60a03461015a57601f613ce138819003918201601f19168301916001600160401b0383118484101761015e57808492604094855283398101031261015a57610052602061004b83610172565b9201610172565b60017f9b779b17422d0df92223018b32b4d1fa46e071723d6817e2486d003becc55f00553315610147575f8054610100600160a81b0319811633600881811b610100600160a81b03169290921784556040519593909290911c6001600160a01b0316907f8be0079c531659141344cd1fd0a4f28419497f9722a3daafe3b4186f6b6457e09080a36402540be4006003556001600160a01b03908116608052600280546001600160a01b03191692909116919091179055613b5a9081610187823960805181818161032b0152818161087801528181610f4b0152818161120f01528181611ac101528181612626015261311c0152f35b631e4fbdf760e01b5f525f60045260245ffd5b5f80fd5b634e487b7160e01b5f52604160045260245ffd5b51906001600160a01b038216820361015a5756fe6101406040526004361015610012575f80fd5b5f3560e01c806301d389ff1461329257806312550e1e146132415780631c376c63146131bb578063280474501461300e578063380deabc14612e975780633f4ba83a14612e3357806342c549c014612cec578063460ff8c414612955578063474da79a1461275f5780634df7dcf2146125395780634efec69d14611f5957806356c3b47514611f3c5780635c975abb14611f1b5780636ebc8c8614611bcc578063715018a614611b7157806377fd00c5146119bd5780637a870b63146119315780637adbf973146118815780637dc0d1d01461185957806381631bf5146112b25780638456cb591461125b5780638736381a1461123e57806389a30271146111fa5780638da5cb5b146111cf5780639c17e43914610e895780639f369aa914610d4b578063a5c1674e14610c96578063aedf609814610b48578063bc8c937d146109f8578063c611001d14610799578063d1a628381461047a578063dbaf091014610257578063f2fde38b146101be5763fadd2b6914610190575f80fd5b346101ba5760203660031901126101ba576004355f526006602052602060405f2054604051908152f35b5f80fd5b346101ba5760203660031901126101ba576101d76134bb565b6101df613958565b6001600160a01b038116908115610244575f8054610100600160a81b03198116600893841b610100600160a81b031617825590911c6001600160a01b0316907f8be0079c531659141344cd1fd0a4f28419497f9722a3daafe3b4186f6b6457e09080a3005b631e4fbdf760e01b5f525f60045260245ffd5b346101ba576102653661339e565b9061026e613981565b6102766139b9565b805f52600460205260405f2061029660018060a01b0382541633146135fc565b60ff600682015460101c1660078110156104665760016102b691146137d5565b815f5260056020526102cb8360405f206133b4565b509060038201805460ff811661042e5760ff8160081c166103f45760ff19166001908117909155908101549101805460405163a9059cbb60e01b81526001600160a01b03939093166004840152602483015290602081806044810103815f7f00000000000000000000000000000000000000000000000000000000000000006001600160a01b03165af180156103e9576103a79484936103966040937fd33fcd27cbfb73a2d9058c968b560ccb306500bf536133802048489ecc7355e9955f916103ba575b5061381c565b5482519182526020820152a2613aa5565b60015f516020613b055f395f51905f5255005b6103dc915060203d6020116103e2575b6103d48183613359565b8101906135a8565b89610390565b503d6103ca565b6040513d5f823e3d90fd5b60405162461bcd60e51b8152602060048201526012602482015271135a5b195cdd1bdb9948191a5cdc1d5d195960721b6044820152606490fd5b60405162461bcd60e51b815260206004820152601060248201526f105b1c9958591e481c995b19585cd95960821b6044820152606490fd5b634e487b7160e01b5f52602160045260245ffd5b346101ba5760603660031901126101ba576004356024356001600160401b0381116101ba576104ad903690600401613528565b6104b89291926139b9565b815f52600460205260405f20600681015460ff8160081c16906002821015610466576104e8600160ff9314613636565b60101c166007811015610466576104ff9015613674565b546001600160a01b0316331461075e575f8281526006602052604081208054915b82811061070457505050815f52600660205261055160405f20936040519261054784613322565b3384523691613732565b9260208201938452604082016044358152606083019042825260808401925f84528054600160401b8110156106dd5761058f91600182018155613555565b9490946106f1575184546001600160a01b0319166001600160a01b03919091161784559451805190959060018501906001600160401b0381116106dd576105e0816105da84546133cd565b84613777565b6020601f82116001146106715781600496959493926106199261063e9a9b5f92610666575b50508160011b915f199060031b1c19161790565b90555b51600285015551600384015551151591019060ff801983541691151516179055565b33907f394b2f46e841d2b670718e98a15dfb76853abc5a8761449c74e9cba62d9015215f80a3005b015190508b80610605565b601f19821698835f52815f20995f5b8181106106c557509960019284926004999897969561063e9c9d106106ad575b505050811b01905561061c565b01515f1960f88460031b161c191690558a80806106a0565b838301518c556001909b019a60209384019301610680565b634e487b7160e01b5f52604160045260245ffd5b634e487b7160e01b5f525f60045260245ffd5b61070e8183613555565b50546001600160a01b0316331461072757600101610520565b60405162461bcd60e51b815260206004820152600f60248201526e105b1c9958591e48185c1c1b1a5959608a1b6044820152606490fd5b60405162461bcd60e51b8152602060048201526013602482015272436c69656e742063616e6e6f74206170706c7960681b6044820152606490fd5b346101ba5760203660031901126101ba576004356107b5613981565b6107bd6139b9565b5f81815260046020526040902060018101546001600160a01b0316338190036109b357600682019060ff825460101c1660078110156104665761080090156136c6565b600a83019081549060ff82161561097a571561093c5761ff001916610100179055805462ff000019166201000017905542600d82015580546007909101546040516323b872dd60e01b81526001600160a01b039283166004820152306024820152604481019190915290602090829060649082905f907f0000000000000000000000000000000000000000000000000000000000000000165af19081156103e9575f9161091d575b50156108e5577f73edfb7736e2a79d626edb978d46bcd467644e8a44cbe706358022b6a6d361ec5f80a260015f516020613b055f395f51905f5255005b60405162461bcd60e51b815260206004820152601060248201526f1554d110c81b1bd8dac819985a5b195960821b6044820152606490fd5b610936915060203d6020116103e2576103d48183613359565b826108a8565b60405162461bcd60e51b8152602060048201526016602482015275139bc8199c99595b185b98d95c88185cdcda59db995960521b6044820152606490fd5b60405162461bcd60e51b815260206004820152601160248201527010db1a595b9d081b9bdd081cda59db9959607a1b6044820152606490fd5b60405162461bcd60e51b815260206004820152601860248201527f4f6e6c792061737369676e656420667265656c616e63657200000000000000006044820152606490fd5b346101ba5760203660031901126101ba576004355f52600660205260405f20805490610a23826136af565b91610a316040519384613359565b8083526020830180925f5260205f205f915b838310610aea57848660405191829160208301906020845251809152604083019060408160051b85010192915f905b828210610a8157505050500390f35b919360019193955060208091603f19898203018552875190848060a01b038251168152608080610abe8585015160a08786015260a085019061337a565b936040810151604085015260608101516060850152015115159101529601920192018594939192610a72565b60056020600192604051610afd81613322565b848060a01b038654168152610b13858701613405565b83820152600286015460408201526003860154606082015260ff60048701541615156080820152815201920192019190610a43565b346101ba5760203660031901126101ba57600435610b646139b9565b805f52600460205260405f2060ff600682015460101c166007811015610466576001610b9091146137d5565b6010810180548015610c5a5782546001600160a01b031633148015610c44575b610bb99061356e565b3314610bff5760095f838160209460117fddcf0b9dbe14d2de9b94c3dcf9ad6f0767698e2b055eb5574b2967eee37f1a3e970192835495869101555555604051908152a2005b60405162461bcd60e51b815260206004820152601a60248201527f43616e6e6f7420617070726f7665206f776e20726571756573740000000000006044820152606490fd5b5060018301546001600160a01b03163314610bb0565b60405162461bcd60e51b81526020600482015260146024820152734e6f20657874656e73696f6e2070656e64696e6760601b6044820152606490fd5b346101ba5760203660031901126101ba57600435610cb26139b9565b805f52600460205260405f20600681019060ff825460101c1690600782101561046657610ce46001610cff93146137d5565b80546001600160a01b03163314908115610d34575b5061356e565b805462ff00001916620300001790557f98d22f4435fd442cf6b79b75c63d172a99344a7073b97b2e1606aa6be67e3d5f5f80a2005b600101546001600160a01b03163314905084610cf9565b346101ba57610d593661339e565b610d616139b9565b815f52600460205260405f209060ff600683015460101c166007811015610466576001610d8e91146137d5565b81546001600160a01b031633148015610e73575b610dab9061356e565b6009820154811115610e3e5760108201908154610e055733918290556011929092018290556040805191825260208201929092527fe47cff2ebed8ad4659f468899ab7ebd88febb7485219b360fc15bfac802daf989190a2005b60405162461bcd60e51b8152602060048201526011602482015270457874656e73696f6e2070656e64696e6760781b6044820152606490fd5b60405162461bcd60e51b815260206004820152600d60248201526c26bab9ba103132903630ba32b960991b6044820152606490fd5b5060018201546001600160a01b03163314610da2565b346101ba5760603660031901126101ba57600435610ea56134a5565b604435610eb0613981565b6002546001600160a01b0316330361118b57825f52600460205260405f206006810160ff815460101c166007811015610466576003036111575781546001600160a01b0385811691168114908115611140575b501561110a576007820190815484116110c557805462ff000019166204000017905560405163a9059cbb60e01b81526001600160a01b038581166004830152602482018590527f000000000000000000000000000000000000000000000000000000000000000016916020826044815f875af19081156103e957610f928692610f98945f916110a6575061381c565b5461394b565b9182610ff2575b5050604080516001600160a01b039490941684526020840192909252507f26ce8cc027750550c2d7b41819ec165ab251f2435349e828cf956a0b55bc2e7f91a260015f516020613b055f395f51905f5255005b5460405163a9059cbb60e01b81526001600160a01b0390911660048201526024810192909252602090829060449082905f905af19081156103e9575f91611087575b501561104257838080610f9f565b60405162461bcd60e51b815260206004820152601760248201527f52656d61696e64657220726566756e64206661696c65640000000000000000006044820152606490fd5b6110a0915060203d6020116103e2576103d48183613359565b84611034565b6110bf915060203d6020116103e2576103d48183613359565b8a610390565b60405162461bcd60e51b815260206004820152601d60248201527f416d6f756e74206578636565647320636f6e747261637420746f74616c0000006044820152606490fd5b60405162461bcd60e51b815260206004820152600e60248201526d24b73b30b634b2103bb4b73732b960911b6044820152606490fd5b60018401546001600160a01b031614905086610f03565b60405162461bcd60e51b815260206004820152600c60248201526b139bdd08191a5cdc1d5d195960a21b6044820152606490fd5b606460405162461bcd60e51b815260206004820152602060248201527f4f6e6c79206f7261636c652063616e207265736f6c76652064697370757465736044820152fd5b346101ba575f3660031901126101ba575f5460405160089190911c6001600160a01b03168152602090f35b346101ba575f3660031901126101ba576040517f00000000000000000000000000000000000000000000000000000000000000006001600160a01b03168152602090f35b346101ba575f3660031901126101ba576020600154604051908152f35b346101ba575f3660031901126101ba57611273613958565b61127b6139b9565b600160ff195f5416175f557f62e78cea01bee320cd4e420270b5ea74000d11b0c9f74754ebdbfc544b05a2586020604051338152a1005b346101ba576101603660031901126101ba576112cc6134bb565b6024356001600160401b0381116101ba576112eb903690600401613528565b91906044356001600160401b0381116101ba5761130c903690600401613528565b92906064356001600160401b0381116101ba5761132d903690600401613528565b9590916084356001600160401b0381116101ba5761134f903690600401613528565b93909460a4359160038310156101ba5760c4359960e4359261136f6139b9565b6001600160a01b031694851561181f573386146117e3576113918c151561385a565b61139f6003548d111561389b565b6113aa4285116138e7565b6113b560015461380e565b60018181555f82815260046020526040902080546001600160a01b031990811633178255918101805490921690981790559a600287016001600160401b0389116106dd5761140d8961140783546133cd565b83613777565b5f898d601f82116001146117795761143a925f918361176e5750508160011b915f199060031b1c19161790565b90555b60038701916001600160401b0382116106dd576114648261145e85546133cd565b85613777565b5f90601f831160011461170a5761149192915f91836115fe5750508160011b915f199060031b1c19161790565b90555b60048501916001600160401b0382116106dd576114b58261145e85546133cd565b5f90601f83116001146116a6576114e292915f918361169b5750508160011b915f199060031b1c19161790565b90555b60058301986001600160401b0386116106dd57898661150b8b986105da60209e546133cd565b5f601f8211600114611609578160029695949392611560927f47ef1a9540f1f60ecd28bf6b98dec6ac975c756c637257a20cf33a2619c57b1b9b9c5f926115fe5750508160011b915f199060031b1c19161790565b90555b600685016115718482613933565b805462ffff001916905560078501554260088501556009840155600a8301805460ff19166001179055146115dd575b5080604051946040865281604087015260608601375f60608286010152601f80199101168301925f868201526060813395030190a3604051908152f35b61010435600b82015561012435600c820155600e61014435910155866115a0565b013590508f80610605565b9091929398601f19831691845f528d5f20925f5b818110611681575092600192859260029998967f47ef1a9540f1f60ecd28bf6b98dec6ac975c756c637257a20cf33a2619c57b1b9d9e989610611668575b505050811b019055611563565b01355f19600384901b60f8161c191690558e808061165b565b8284013585558e9b50600190940193918f01918f0161161d565b013590508d80610605565b601f19831691845f5260205f20925f5b8181106116f257509084600195949392106116d9575b505050811b0190556114e5565b01355f19600384901b60f8161c191690558c80806116cc565b919360206001819287870135815501950192016116b6565b601f19831691845f5260205f20925f5b818110611756575090846001959493921061173d575b505050811b019055611494565b01355f19600384901b60f8161c191690558e8080611730565b9193602060018192878701358155019501920161171a565b013590505f8f610605565b9050601f198b1691835f528b60205f20935f5b8181106117c35750106117aa575b505050600189811b01905561143d565b01355f1960038c901b60f8161c191690558e8c8161179a565b936020925083958392946001920135815501940192018f92918d9161178c565b60405162461bcd60e51b815260206004820152601460248201527321b0b73737ba103434b932903cb7bab939b2b63360611b6044820152606490fd5b60405162461bcd60e51b815260206004820152601260248201527124b73b30b634b210333932b2b630b731b2b960711b6044820152606490fd5b346101ba575f3660031901126101ba576002546040516001600160a01b039091168152602090f35b346101ba5760203660031901126101ba5761189a6134bb565b6118a2613958565b6001600160a01b031680156118f357600254816001600160a01b0382167f078c3b417dadf69374a59793b829c52001247130433427049317bde56607b1b75f80a36001600160a01b03191617600255005b60405162461bcd60e51b8152602060048201526016602482015275496e76616c6964206f7261636c65206164647265737360501b6044820152606490fd5b346101ba5761193f3661339e565b905f52600660205260405f209081548110156101ba5761195e91613555565b5080546001600160a01b031661197660018301613405565b9160028101549060ff6004600383015492015416906119a7604051958695865260a0602087015260a086019061337a565b9260408501526060840152151560808301520390f35b346101ba5760203660031901126101ba576004356119d9613981565b6119e16139b9565b805f52600460205260405f206006810160ff815460101c166007811015610466576001611a0e91146137d5565b6009820154421115611b3e5781546001600160a01b031633148015611b28575b611a379061356e565b805462ff0000191662060000179055611a4f826139d3565b9081611a8e575b827f9325fbfd991d20e53f36adfe94b443a61b400da1d2fa18bc3c8dd6744c10a0fa5f80a260015f516020613b055f395f51905f5255005b5460405163a9059cbb60e01b81526001600160a01b0390911660048201526024810191909152602081806044810103815f7f00000000000000000000000000000000000000000000000000000000000000006001600160a01b03165af180156103e957611b02915f91611b09575b506135c0565b8180611a56565b611b22915060203d6020116103e2576103d48183613359565b83611afc565b5060018201546001600160a01b03163314611a2e565b60405162461bcd60e51b815260206004820152600b60248201526a139bdd08195e1c1a5c995960aa1b6044820152606490fd5b346101ba575f3660031901126101ba57611b89613958565b5f8054610100600160a81b03198116825560081c6001600160a01b03167f8be0079c531659141344cd1fd0a4f28419497f9722a3daafe3b4186f6b6457e08280a3005b346101ba5760203660031901126101ba575f610280604051611bed8161333d565b8281528260208201526060604082015260608082015260606080820152606060a08201528260c08201528260e08201528261010082015282610120820152826101408201528261016082015282610180820152826101a0820152826101c0820152826101e08201528261020082015282610220820152826102408201528261026082015201526004355f52600460205260405f2060405190611c8e8261333d565b80546001600160a01b0390811683526001820154166020830152611cb460028201613405565b6040830152611cc560038201613405565b6060830152611cd660048201613405565b6080830152611ce760058201613405565b60a0830152600681015460ff811660038110156104665760c084015260ff8160081c169060028210156104665760ff9160e085015260101c169060078210156104665760119161010084015260078101546101208401526008810154610140840152600981015461016084015260ff600a820154818116151561018086015260081c1615156101a0840152600b8101546101c0840152600c8101546101e0840152600d810154610200840152600e810154610220840152600f8101546102408401526010810154610260840152015461028082015260405180916020825260018060a01b03815116602083015260018060a01b036020820151166040830152610280611e4f611e39611e23611e0d60408601516102a060608901526102c088019061337a565b6060860151878203601f1901608089015261337a565b6080850151868203601f190160a088015261337a565b60a0840151858203601f190160c087015261337a565b91611e6260c082015160e0860190613501565b611e7560e082015161010086019061350e565b611e8961010082015161012086019061351b565b61012081015161014085015261014081015161016085015261016081015161018085015261018081015115156101a08501526101a081015115156101c08501526101c08101516101e08501526101e08101516102008501526102008101516102208501526102208101516102408501526102408101516102608501526102608101518285015201516102a08301520390f35b346101ba575f3660031901126101ba57602060ff5f54166040519015158152f35b346101ba575f3660031901126101ba576020600354604051908152f35b346101ba576101403660031901126101ba576004356001600160401b0381116101ba57611f8a903690600401613528565b906024356001600160401b0381116101ba57611faa903690600401613528565b6044929192356001600160401b0381116101ba57611fcc903690600401613528565b906064356001600160401b0381116101ba57611fec903690600401613528565b919092600360843510156101ba576120026139b9565b61200f60a435151561385a565b61201f60035460a435111561389b565b61202c4260c435116138e7565b61203760015461380e565b60018181555f82815260046020526040902080546001600160a01b0319908116331782559181018054909216909155909790956001600160401b038a116106dd576120928a61208960028a01546133cd565b60028a01613777565b5f8a601f81116001146124ce57806120be925f916124c3575b508160011b915f199060031b1c19161790565b60028801555b60038701916001600160401b0382116106dd576120e58261145e85546133cd565b5f90601f831160011461245f5761211292915f91836124545750508160011b915f199060031b1c19161790565b90555b60048501916001600160401b0382116106dd576121368261145e85546133cd565b5f90601f83116001146123f05761216392915f91836123e55750508160011b915f199060031b1c19161790565b90555b60058301916001600160401b0382116106dd576121878261145e85546133cd565b5f90601f8311600114612381576121b492915f91836123765750508160011b915f199060031b1c19161790565b90555b600681016121c760843582613933565b805462ffff00191661010017905560a435600782015542600882015560c4356009820155600a8101805460ff19166001179055608435600214612268575b50817f47ef1a9540f1f60ecd28bf6b98dec6ac975c756c637257a20cf33a2619c57b1b84602095604051946040865281604087015260608601375f60608286010152601f80199101168301926001868201526060813395030190a3604051908152f35b9260e435156123315761010435156122ec5761012435156122a75760e435600b85015561010435600c85015561012435600e9094019390935581612205565b60405162461bcd60e51b815260206004820152601860248201527f526563757272696e6720636f756e7420726571756972656400000000000000006044820152606490fd5b60405162461bcd60e51b815260206004820152601b60248201527f526563757272696e6720696e74657276616c20726571756972656400000000006044820152606490fd5b60405162461bcd60e51b815260206004820152601960248201527f526563757272696e6720616d6f756e74207265717569726564000000000000006044820152606490fd5b013590508880610605565b601f19831691845f5260205f20925f5b8181106123cd57509084600195949392106123b4575b505050811b0190556121b7565b01355f19600384901b60f8161c191690558780806123a7565b91936020600181928787013581550195019201612391565b013590508a80610605565b601f19831691845f5260205f20925f5b81811061243c5750908460019594939210612423575b505050811b019055612166565b01355f19600384901b60f8161c19169055898080612416565b91936020600181928787013581550195019201612400565b013590508c80610605565b601f19831691845f5260205f20925f5b8181106124ab5750908460019594939210612492575b505050811b019055612115565b01355f19600384901b60f8161c191690558b8080612485565b9193602060018192878701358155019501920161246f565b90508a01358d6120ab565b50600288015f5260205f20905f5b8a601f198e1682106125215750508b601f19811610612508575b505060018a811b0160028801556120c4565b8901355f1960038d901b60f8161c191690558a806124f6565b600183946020939484930135815501930191016124dc565b346101ba5760203660031901126101ba57600435612555613981565b61255d6139b9565b805f52600460205260405f206006810191825460ff8160101c169060078210156104665761258f600160ff93146137d5565b1660038110156104665760020361272a57600d8201906125b58254600c85015490613711565b42106126f957600f830192835490600e81019384548310156126c957612621926125e19142905561380e565b85556001810154600b909101805460405163a9059cbb60e01b81526001600160a01b03909316600484015260248301529091602090839081906044820190565b03815f7f00000000000000000000000000000000000000000000000000000000000000006001600160a01b03165af19081156103e95761268b6040927f4ad20d7379197e1bc6eb2ba755385f362d82d03207be3af65895e754b634981f945f916103ba575061381c565b549454948151908152856020820152a254146126b45760015f516020613b055f395f51905f5255005b805462ff0000191662020000179055806103a7565b60405162461bcd60e51b8152602060048201526008602482015267105b1b081c185a5960c21b6044820152606490fd5b60405162461bcd60e51b8152602060048201526009602482015268546f6f206561726c7960b81b6044820152606490fd5b60405162461bcd60e51b815260206004820152600d60248201526c4e6f7420726563757272696e6760981b6044820152606490fd5b346101ba5760203660031901126101ba57600480355f90815260209190915260409020805460018201546001600160a01b0390811660c05216906127a560028201613405565b610100526127b560038201613405565b610120526127c560048201613405565b916127d260058301613405565b92600683015493600784015460088501546009860154600a87015491600b88015493600c89015495600d8a015497600e8b015499600f8c01549b60108101546080526011015460a05260405160e05260e0515260c05160e0516020015260e0516040016102a0905260e0516102a001610100519061284f9161337a565b60e051810360e0516060015261012051906128699161337a565b60e051810360e0516080015261287e9161337a565b60e051810360e05160a001526128939161337a565b9960e05160c00160ff8216906128a891613501565b60e05160e0018160081c60ff16906128bf9161350e565b60e051610100019060101c60ff16906128d79161351b565b60e051610120015260e051610140015260e051610160015260ff8116151560e051610180015260081c60ff16151560e0516101a0015260e0516101c0015260e0516101e0015260e051610200015260e051610220015260e051610240015260805160e051610260015260a05160e051610280015260e051900360e051f35b346101ba5760803660031901126101ba576004356024356001600160401b0381116101ba576129889036906004016134d1565b906044356001600160401b0381116101ba576129a89036906004016134d1565b6064929192356001600160401b0381116101ba576129ca9036906004016134d1565b9490916129d56139b9565b865f52600460205260405f20956129f660018060a01b0388541633146135fc565b60ff600688015460101c16600781101561046657612a1490156136c6565b81831480612ce3575b15612cad57969291905f959495975f96601e1981360301905b838910612a9a578a60078b015403612a4a57005b60405162461bcd60e51b815260206004820152602260248201527f4d696c6573746f6e6520616d6f756e7473206d75737420657175616c20746f74604482015261185b60f21b6064820152608490fd5b909192939495969799612ab990612ab28c878c613701565b3590613711565b99875f52600560205260405f2086821015612c99578160051b830135848112156101ba578301908135916001600160401b0383116101ba576020019180360383136101ba578992612b31612b1b868f612b14828e8e93613701565b3597613701565b359160405193612b2a85613322565b3691613732565b8252602082019384526040820190815260608201935f855260808301935f85528054600160401b8110156106dd57612b6e916001820181556133b4565b9390936106f157518051906001600160401b0382116106dd57612b9b82612b9587546133cd565b87613777565b602090601f8311600114612c2a5792612bd78360019a99989794612bfc97946003975f92612c1f5750508160011b915f199060031b1c19161790565b83555b51888301555160028201550192511515839060ff801983541691151516179055565b51815461ff00191690151560081b61ff0016179055019796959493929190612a36565b015190505f80610605565b90601f19831691865f52815f20925f5b818110612c81575093612bfc96936003969360019c9b9a999693838e9510612c6a575b505050811b018355612bda565b01515f1983891b60f8161c191690555f8080612c5d565b92936020600181928786015181550195019301612c3a565b634e487b7160e01b5f52603260045260245ffd5b60405162461bcd60e51b815260206004820152600e60248201526d082e4e4c2f240dad2e6dac2e8c6d60931b6044820152606490fd5b50808214612a1d565b346101ba5760203660031901126101ba576004355f52600560205260405f20805490612d17826136af565b91612d256040519384613359565b8083526020830180925f5260205f205f915b838310612dd957848660405191829160208301906020845251809152604083019060408160051b85010192915f905b828210612d7557505050500390f35b919360019193955060208091603f19898203018552875190608080612da3845160a0855260a085019061337a565b93858101518685015260408101516040850152606081015115156060850152015115159101529601920192018594939192612d66565b60046020600192604051612dec81613322565b612df586613405565b815284860154838201526002860154604082015260ff60038701548181161515606084015260081c1615156080820152815201920192019190612d37565b346101ba575f3660031901126101ba57612e4b613958565b5f5460ff811615612e885760ff19165f557f5db9ee0a495bf2e6ff9c91a7834c1ba4fdd244a5e8aa4e537bd38aeae4b073aa6020604051338152a1005b638dfc202b60e01b5f5260045ffd5b346101ba5760403660031901126101ba57600435612eb36134a5565b612ebb6139b9565b815f52600460205260405f2091612edc60018060a01b0384541633146135fc565b600683015460ff8160081c1690600282101561046657612f00600160ff9314613636565b60101c1660078110156104665790612f19849215613674565b5f8181526006602052604081206001600160a01b0390941693909290835b81548110156130055785612f4b8284613555565b50546001600160a01b031614612f6357600101612f37565b600492939450612f7291613555565b5001600160ff1982541617905560015b15612fc05760010180546001600160a01b031916831790557f038b6dd13ab376cd96a6924f79dde494c7fbb5ea9f8c950b668d934645995cfd5f80a3005b60405162461bcd60e51b815260206004820152601860248201527f467265656c616e63657220646964206e6f74206170706c7900000000000000006044820152606490fd5b50509091612f82565b346101ba5760203660031901126101ba5760043561302a613981565b6130326139b9565b805f52600460205260405f2060018060a01b03815416331480156131a5575b61305a9061356e565b6006810160ff815460101c1690600782101590816104665782158015613198575b1561316357805462ff0000191662050000179055610466576001146130d3575b507f2d5f5ed000d42aa6f6fc13400f7d7161cd1bea793fec354b11e3451f9f2b07c35f80a260015f516020613b055f395f51905f5255005b6130dc826139d3565b90816130e9575b5061309b565b5460405163a9059cbb60e01b81526001600160a01b0390911660048201526024810191909152602081806044810103815f7f00000000000000000000000000000000000000000000000000000000000000006001600160a01b03165af180156103e95761315c915f91611b0957506135c0565b81806130e3565b60405162461bcd60e51b815260206004820152600d60248201526c10d85b9b9bdd0818d85b98d95b609a1b6044820152606490fd5b505f91506001831461307b565b5060018101546001600160a01b03163314613051565b346101ba576131c93661339e565b905f52600560205260405f2080548210156101ba5761321d916131eb916133b4565b506131f581613405565b9060ff600182015491600360028201549101549060405195869560a0875260a087019061337a565b93602086015260408501528181161515606085015260081c16151560808301520390f35b346101ba575f3660031901126101ba5761328e604051613262604082613359565b600b81526a1898d7dd8c585b5c1d994d60aa1b602082015260405191829160208352602083019061337a565b0390f35b346101ba5760203660031901126101ba576004356132ae613958565b80156132eb577fb36e62753da7ff03fd12bac77e33ddc3a9aa66a62714be3ef99efc7e23b90efb60406003548151908152836020820152a1600355005b60405162461bcd60e51b815260206004820152600f60248201526e04d6178206d757374206265203e203608c1b6044820152606490fd5b60a081019081106001600160401b038211176106dd57604052565b6102a081019081106001600160401b038211176106dd57604052565b90601f801991011681019081106001600160401b038211176106dd57604052565b805180835260209291819084018484015e5f828201840152601f01601f1916010190565b60409060031901126101ba576004359060243590565b8054821015612c99575f5260205f209060021b01905f90565b90600182811c921680156133fb575b60208310146133e757565b634e487b7160e01b5f52602260045260245ffd5b91607f16916133dc565b9060405191825f825492613418846133cd565b8084529360018116908115613483575060011461343f575b5061343d92500383613359565b565b90505f9291925260205f20905f915b81831061346757505090602061343d928201015f613430565b602091935080600191548385890101520191019091849261344e565b90506020925061343d94915060ff191682840152151560051b8201015f613430565b602435906001600160a01b03821682036101ba57565b600435906001600160a01b03821682036101ba57565b9181601f840112156101ba578235916001600160401b0383116101ba576020808501948460051b0101116101ba57565b9060038210156104665752565b9060028210156104665752565b9060078210156104665752565b9181601f840112156101ba578235916001600160401b0383116101ba57602083818601950101116101ba57565b8054821015612c99575f52600560205f20910201905f90565b1561357557565b60405162461bcd60e51b815260206004820152600b60248201526a4e6f74206120706172747960a81b6044820152606490fd5b908160209103126101ba575180151581036101ba5790565b156135c757565b60405162461bcd60e51b815260206004820152600d60248201526c1499599d5b990819985a5b1959609a1b6044820152606490fd5b1561360357565b60405162461bcd60e51b815260206004820152600b60248201526a13db9b1e4818db1a595b9d60aa1b6044820152606490fd5b1561363d57565b60405162461bcd60e51b815260206004820152600f60248201526e2737ba1030b71037b832b7103537b160891b6044820152606490fd5b1561367b57565b60405162461bcd60e51b815260206004820152600c60248201526b2537b1103737ba1037b832b760a11b6044820152606490fd5b6001600160401b0381116106dd5760051b60200190565b156136cd57565b60405162461bcd60e51b815260206004820152600c60248201526b139bdd081c1c9bdc1bdcd95960a21b6044820152606490fd5b9190811015612c995760051b0190565b9190820180921161371e57565b634e487b7160e01b5f52601160045260245ffd5b9291926001600160401b0382116106dd576040519161375b601f8201601f191660200184613359565b8294818452818301116101ba578281602093845f960137010152565b919091601f8311613788575b505050565b81831161379457505050565b5f5260205f206020601f830160051c92106137cd575b81601f9101920160051c03905f5b82811015613783575f828201556001016137b8565b5f91506137aa565b156137dc57565b60405162461bcd60e51b815260206004820152600a6024820152694e6f742061637469766560b01b6044820152606490fd5b5f19811461371e5760010190565b1561382357565b60405162461bcd60e51b815260206004820152600f60248201526e151c985b9cd9995c8819985a5b1959608a1b6044820152606490fd5b1561386157565b60405162461bcd60e51b81526020600482015260126024820152710416d6f756e74206d757374206265203e20360741b6044820152606490fd5b156138a257565b60405162461bcd60e51b815260206004820152601f60248201527f45786365656473206d6178696d756d20636f6e747261637420616d6f756e74006044820152606490fd5b156138ee57565b60405162461bcd60e51b815260206004820152601a60248201527f446561646c696e65206d75737420626520696e206675747572650000000000006044820152606490fd5b9060038110156104665760ff80198354169116179055565b9190820391821161371e57565b5f5460081c6001600160a01b0316330361396e57565b63118cdaa760e01b5f523360045260245ffd5b60025f516020613b055f395f51905f5254146139aa5760025f516020613b055f395f51905f5255565b633ee5aeb560e01b5f5260045ffd5b60ff5f54166139c457565b63d93c066560e01b5f5260045ffd5b805f52600460205260405f209060ff60068301541660038110156104665760018103613a6b57505f52600560205260405f20905f915f908054915b828110613a2957505050906007613a2692015461394b565b90565b60ff6003613a3783856133b4565b50015416613a48575b600101613a0e565b93613a6360019182613a5a88866133b4565b50015490613711565b949050613a40565b6002915014613a7b576007015490565b600781015490600b600f8201549101549081810291818304149015171561371e57613a269161394b565b5f8181526005602052604081208054915b828110613adf575050505f526004602052600660405f20016202000062ff000019825416179055565b60ff6003613aed83856133b4565b5001541615613afe57600101613ab6565b5050505056fe9b779b17422d0df92223018b32b4d1fa46e071723d6817e2486d003becc55f00a2646970667358221220d20fb9db49df72668504ed6be801723966c4cea6cdeeea123ccd3ce39f13b7c864736f6c63430008210033","linkReferences":{}},"methodIdentifiers":{"BUILDER_CODE()":"12550e1e","USDC()":"89a30271","addMilestones(uint256,string[],uint256[],uint256[])":"460ff8c4","applications(uint256,uint256)":"7a870b63","applyForJob(uint256,string,uint256)":"d1a62838","approveExtension(uint256)":"aedf6098","cancelContract(uint256)":"28047450","contractCount()":"8736381a","contracts(uint256)":"474da79a","getApplicationCount(uint256)":"fadd2b69","getApplications(uint256)":"bc8c937d","getContract(uint256)":"6ebc8c86","getMilestones(uint256)":"42c549c0","markExpired(uint256)":"77fd00c5","maxContractAmount()":"56c3b475","milestones(uint256,uint256)":"1c376c63","oracle()":"7dc0d1d0","owner()":"8da5cb5b","pause()":"8456cb59","paused()":"5c975abb","postOpenJob(string,string,string,string,uint8,uint256,uint256,uint256,uint256,uint256)":"4efec69d","proposeDirectContract(address,string,string,string,string,uint8,uint256,uint256,uint256,uint256,uint256)":"81631bf5","raiseDispute(uint256)":"a5c1674e","releaseMilestone(uint256,uint256)":"dbaf0910","releaseRecurringPayment(uint256)":"4df7dcf2","renounceOwnership()":"715018a6","requestExtension(uint256,uint256)":"9f369aa9","resolveDispute(uint256,address,uint256)":"9c17e439","selectFreelancer(uint256,address)":"380deabc","setMaxContractAmount(uint256)":"01d389ff","setOracle(address)":"7adbf973","signAndActivate(uint256)":"c611001d","transferOwnership(address)":"f2fde38b","unpause()":"3f4ba83a"},"id":22}