{"abi":[{"type":"constructor","inputs":[{"name":"_usdc","type":"address","internalType":"address"}],"stateMutability":"nonpayable"},{"type":"function","name":"BUILDER_CODE","inputs":[],"outputs":[{"name":"","type":"string","internalType":"string"}],"stateMutability":"view"},{"type":"function","name":"acceptJob","inputs":[{"name":"_jobId","type":"uint256","internalType":"uint256"}],"outputs":[],"stateMutability":"nonpayable"},{"type":"function","name":"cancelJob","inputs":[{"name":"_jobId","type":"uint256","internalType":"uint256"}],"outputs":[],"stateMutability":"nonpayable"},{"type":"function","name":"createJob","inputs":[{"name":"_amount","type":"uint256","internalType":"uint256"},{"name":"_title","type":"string","internalType":"string"},{"name":"_description","type":"string","internalType":"string"}],"outputs":[{"name":"","type":"uint256","internalType":"uint256"}],"stateMutability":"nonpayable"},{"type":"function","name":"getJob","inputs":[{"name":"_jobId","type":"uint256","internalType":"uint256"}],"outputs":[{"name":"","type":"tuple","internalType":"struct WorkChainEscrow.Job","components":[{"name":"client","type":"address","internalType":"address"},{"name":"freelancer","type":"address","internalType":"address"},{"name":"amount","type":"uint256","internalType":"uint256"},{"name":"status","type":"uint8","internalType":"enum WorkChainEscrow.JobStatus"},{"name":"title","type":"string","internalType":"string"},{"name":"description","type":"string","internalType":"string"},{"name":"createdAt","type":"uint256","internalType":"uint256"},{"name":"completedAt","type":"uint256","internalType":"uint256"}]}],"stateMutability":"view"},{"type":"function","name":"jobCount","inputs":[],"outputs":[{"name":"","type":"uint256","internalType":"uint256"}],"stateMutability":"view"},{"type":"function","name":"jobs","inputs":[{"name":"","type":"uint256","internalType":"uint256"}],"outputs":[{"name":"client","type":"address","internalType":"address"},{"name":"freelancer","type":"address","internalType":"address"},{"name":"amount","type":"uint256","internalType":"uint256"},{"name":"status","type":"uint8","internalType":"enum WorkChainEscrow.JobStatus"},{"name":"title","type":"string","internalType":"string"},{"name":"description","type":"string","internalType":"string"},{"name":"createdAt","type":"uint256","internalType":"uint256"},{"name":"completedAt","type":"uint256","internalType":"uint256"}],"stateMutability":"view"},{"type":"function","name":"raiseDispute","inputs":[{"name":"_jobId","type":"uint256","internalType":"uint256"}],"outputs":[],"stateMutability":"nonpayable"},{"type":"function","name":"releasePayment","inputs":[{"name":"_jobId","type":"uint256","internalType":"uint256"}],"outputs":[],"stateMutability":"nonpayable"},{"type":"function","name":"resolveDispute","inputs":[{"name":"_jobId","type":"uint256","internalType":"uint256"},{"name":"_winner","type":"address","internalType":"address"}],"outputs":[],"stateMutability":"nonpayable"},{"type":"function","name":"usdc","inputs":[],"outputs":[{"name":"","type":"address","internalType":"contract IERC20"}],"stateMutability":"view"},{"type":"event","name":"JobAccepted","inputs":[{"name":"jobId","type":"uint256","indexed":true,"internalType":"uint256"},{"name":"freelancer","type":"address","indexed":true,"internalType":"address"}],"anonymous":false},{"type":"event","name":"JobCancelled","inputs":[{"name":"jobId","type":"uint256","indexed":true,"internalType":"uint256"}],"anonymous":false},{"type":"event","name":"JobCompleted","inputs":[{"name":"jobId","type":"uint256","indexed":true,"internalType":"uint256"}],"anonymous":false},{"type":"event","name":"JobCreated","inputs":[{"name":"jobId","type":"uint256","indexed":true,"internalType":"uint256"},{"name":"client","type":"address","indexed":true,"internalType":"address"},{"name":"amount","type":"uint256","indexed":false,"internalType":"uint256"},{"name":"title","type":"string","indexed":false,"internalType":"string"}],"anonymous":false},{"type":"event","name":"JobDisputed","inputs":[{"name":"jobId","type":"uint256","indexed":true,"internalType":"uint256"}],"anonymous":false},{"type":"event","name":"JobResolved","inputs":[{"name":"jobId","type":"uint256","indexed":true,"internalType":"uint256"},{"name":"winner","type":"address","indexed":true,"internalType":"address"}],"anonymous":false}],"bytecode":{"object":"0x60a060405234801561000f575f5ffd5b5060405161260a38038061260a833981810160405281019061003191906100c9565b8073ffffffffffffffffffffffffffffffffffffffff1660808173ffffffffffffffffffffffffffffffffffffffff1681525050506100f4565b5f5ffd5b5f73ffffffffffffffffffffffffffffffffffffffff82169050919050565b5f6100988261006f565b9050919050565b6100a88161008e565b81146100b2575f5ffd5b50565b5f815190506100c38161009f565b92915050565b5f602082840312156100de576100dd61006b565b5b5f6100eb848285016100b5565b91505092915050565b6080516124e26101285f395f81816103d3015281816108130152818161094401528181610b80015261103701526124e25ff3fe608060405234801561000f575f5ffd5b50600436106100a7575f3560e01c80634c5d8a0f1161006f5780634c5d8a0f1461015657806363b2f3c914610174578063795c8db01461019057806388685cd9146101c0578063a5c1674e146101dc578063bf22c457146101f8576100a7565b80630e33599d146100ab57806312550e1e146100c7578063180aedf3146100e55780631dffa3dc1461011c5780633e413bee14610138575b5f5ffd5b6100c560048036038101906100c09190611697565b610228565b005b6100cf6104f8565b6040516100dc9190611745565b60405180910390f35b6100ff60048036038101906100fa9190611765565b610531565b604051610113989796959493929190611821565b60405180910390f35b61013660048036038101906101319190611765565b6106cb565b005b610140610942565b60405161014d9190611906565b60405180910390f35b61015e610966565b60405161016b919061191f565b60405180910390f35b61018e60048036038101906101899190611765565b61096b565b005b6101aa60048036038101906101a59190611999565b610b3b565b6040516101b7919061191f565b60405180910390f35b6101da60048036038101906101d59190611765565b610ee5565b005b6101f660048036038101906101f19190611765565b611167565b005b610212600480360381019061020d9190611765565b611338565b60405161021f9190611b53565b60405180910390f35b5f60015f8481526020019081526020015f209050600360058111156102505761024f6117ae565b5b816003015f9054906101000a900460ff166005811115610273576102726117ae565b5b146102b3576040517f08c379a00000000000000000000000000000000000000000000000000000000081526004016102aa90611bbd565b60405180910390fd5b805f015f9054906101000a900473ffffffffffffffffffffffffffffffffffffffff1673ffffffffffffffffffffffffffffffffffffffff168273ffffffffffffffffffffffffffffffffffffffff16148061035d5750806001015f9054906101000a900473ffffffffffffffffffffffffffffffffffffffff1673ffffffffffffffffffffffffffffffffffffffff168273ffffffffffffffffffffffffffffffffffffffff16145b61039c576040517f08c379a000000000000000000000000000000000000000000000000000000000815260040161039390611c4b565b60405180910390fd5b6004816003015f6101000a81548160ff021916908360058111156103c3576103c26117ae565b5b02179055504281600701819055507f000000000000000000000000000000000000000000000000000000000000000073ffffffffffffffffffffffffffffffffffffffff1663a9059cbb8383600201546040518363ffffffff1660e01b8152600401610430929190611c69565b6020604051808303815f875af115801561044c573d5f5f3e3d5ffd5b505050506040513d601f19601f820116820180604052508101906104709190611cc5565b6104af576040517f08c379a00000000000000000000000000000000000000000000000000000000081526004016104a690611d3a565b60405180910390fd5b8173ffffffffffffffffffffffffffffffffffffffff16837f707f27677c502654e3530497cf5d438314e645f7746a66052ec27ffbb33de5db60405160405180910390a3505050565b6040518060400160405280600b81526020017f62635f7631616d7076653400000000000000000000000000000000000000000081525081565b6001602052805f5260405f205f91509050805f015f9054906101000a900473ffffffffffffffffffffffffffffffffffffffff1690806001015f9054906101000a900473ffffffffffffffffffffffffffffffffffffffff1690806002015490806003015f9054906101000a900460ff16908060040180546105b290611d85565b80601f01602080910402602001604051908101604052809291908181526020018280546105de90611d85565b80156106295780601f1061060057610100808354040283529160200191610629565b820191905f5260205f20905b81548152906001019060200180831161060c57829003601f168201915b50505050509080600501805461063e90611d85565b80601f016020809104026020016040519081016040528092919081815260200182805461066a90611d85565b80156106b55780601f1061068c576101008083540402835291602001916106b5565b820191905f5260205f20905b81548152906001019060200180831161069857829003601f168201915b5050505050908060060154908060070154905088565b5f60015f8381526020019081526020015f2090505f60058111156106f2576106f16117ae565b5b816003015f9054906101000a900460ff166005811115610715576107146117ae565b5b14610755576040517f08c379a000000000000000000000000000000000000000000000000000000000815260040161074c90611dff565b60405180910390fd5b3373ffffffffffffffffffffffffffffffffffffffff16815f015f9054906101000a900473ffffffffffffffffffffffffffffffffffffffff1673ffffffffffffffffffffffffffffffffffffffff16146107e5576040517f08c379a00000000000000000000000000000000000000000000000000000000081526004016107dc90611e67565b60405180910390fd5b6005816003015f6101000a81548160ff0219169083600581111561080c5761080b6117ae565b5b02179055507f000000000000000000000000000000000000000000000000000000000000000073ffffffffffffffffffffffffffffffffffffffff1663a9059cbb825f015f9054906101000a900473ffffffffffffffffffffffffffffffffffffffff1683600201546040518363ffffffff1660e01b8152600401610892929190611c69565b6020604051808303815f875af11580156108ae573d5f5f3e3d5ffd5b505050506040513d601f19601f820116820180604052508101906108d29190611cc5565b610911576040517f08c379a000000000000000000000000000000000000000000000000000000000815260040161090890611d3a565b60405180910390fd5b817f58243f872c550ad02802199ade99eb4250f6bb19e9abbf2d3de7b969c0eb5e4f60405160405180910390a25050565b7f000000000000000000000000000000000000000000000000000000000000000081565b5f5481565b5f60015f8381526020019081526020015f2090505f6005811115610992576109916117ae565b5b816003015f9054906101000a900460ff1660058111156109b5576109b46117ae565b5b146109f5576040517f08c379a00000000000000000000000000000000000000000000000000000000081526004016109ec90611ecf565b60405180910390fd5b3373ffffffffffffffffffffffffffffffffffffffff16815f015f9054906101000a900473ffffffffffffffffffffffffffffffffffffffff1673ffffffffffffffffffffffffffffffffffffffff1603610a85576040517f08c379a0000000000000000000000000000000000000000000000000000000008152600401610a7c90611f37565b60405180910390fd5b33816001015f6101000a81548173ffffffffffffffffffffffffffffffffffffffff021916908373ffffffffffffffffffffffffffffffffffffffff1602179055506001816003015f6101000a81548160ff02191690836005811115610aee57610aed6117ae565b5b02179055503373ffffffffffffffffffffffffffffffffffffffff16827f4426e4a90a9570c8f678a263b11785eaaade8b79d76d18c43d4d8e00062e4f8360405160405180910390a35050565b5f5f8611610b7e576040517f08c379a0000000000000000000000000000000000000000000000000000000008152600401610b7590611f9f565b60405180910390fd5b7f000000000000000000000000000000000000000000000000000000000000000073ffffffffffffffffffffffffffffffffffffffff166323b872dd3330896040518463ffffffff1660e01b8152600401610bdb93929190611fbd565b6020604051808303815f875af1158015610bf7573d5f5f3e3d5ffd5b505050506040513d601f19601f82011682018060405250810190610c1b9190611cc5565b610c5a576040517f08c379a0000000000000000000000000000000000000000000000000000000008152600401610c5190611d3a565b60405180910390fd5b5f5f5f8154610c689061201f565b91905081905590506040518061010001604052803373ffffffffffffffffffffffffffffffffffffffff1681526020015f73ffffffffffffffffffffffffffffffffffffffff1681526020018881526020015f6005811115610ccd57610ccc6117ae565b5b815260200187878080601f0160208091040260200160405190810160405280939291908181526020018383808284375f81840152601f19601f82011690508083019250505050505050815260200185858080601f0160208091040260200160405190810160405280939291908181526020018383808284375f81840152601f19601f8201169050808301925050505050505081526020014281526020015f81525060015f8381526020019081526020015f205f820151815f015f6101000a81548173ffffffffffffffffffffffffffffffffffffffff021916908373ffffffffffffffffffffffffffffffffffffffff1602179055506020820151816001015f6101000a81548173ffffffffffffffffffffffffffffffffffffffff021916908373ffffffffffffffffffffffffffffffffffffffff160217905550604082015181600201556060820151816003015f6101000a81548160ff02191690836005811115610e3d57610e3c6117ae565b5b02179055506080820151816004019081610e57919061223b565b5060a0820151816005019081610e6d919061223b565b5060c0820151816006015560e082015181600701559050503373ffffffffffffffffffffffffffffffffffffffff16817f6f3a5227c058380f6d30b3c63e04e4b049f2df6d1780f11e4ff1b3e9728a3652898989604051610ed093929190612344565b60405180910390a38091505095945050505050565b5f60015f8381526020019081526020015f20905060016005811115610f0d57610f0c6117ae565b5b816003015f9054906101000a900460ff166005811115610f3057610f2f6117ae565b5b14610f70576040517f08c379a0000000000000000000000000000000000000000000000000000000008152600401610f67906123be565b60405180910390fd5b3373ffffffffffffffffffffffffffffffffffffffff16815f015f9054906101000a900473ffffffffffffffffffffffffffffffffffffffff1673ffffffffffffffffffffffffffffffffffffffff1614611000576040517f08c379a0000000000000000000000000000000000000000000000000000000008152600401610ff790612426565b60405180910390fd5b6002816003015f6101000a81548160ff02191690836005811115611027576110266117ae565b5b02179055504281600701819055507f000000000000000000000000000000000000000000000000000000000000000073ffffffffffffffffffffffffffffffffffffffff1663a9059cbb826001015f9054906101000a900473ffffffffffffffffffffffffffffffffffffffff1683600201546040518363ffffffff1660e01b81526004016110b7929190611c69565b6020604051808303815f875af11580156110d3573d5f5f3e3d5ffd5b505050506040513d601f19601f820116820180604052508101906110f79190611cc5565b611136576040517f08c379a000000000000000000000000000000000000000000000000000000000815260040161112d90611d3a565b60405180910390fd5b817f02244c8529cb95e213ee542e76e7776342b3dabd10203d01472bbf4441be892960405160405180910390a25050565b5f60015f8381526020019081526020015f2090506001600581111561118f5761118e6117ae565b5b816003015f9054906101000a900460ff1660058111156111b2576111b16117ae565b5b146111f2576040517f08c379a00000000000000000000000000000000000000000000000000000000081526004016111e9906123be565b60405180910390fd5b805f015f9054906101000a900473ffffffffffffffffffffffffffffffffffffffff1673ffffffffffffffffffffffffffffffffffffffff163373ffffffffffffffffffffffffffffffffffffffff16148061129c5750806001015f9054906101000a900473ffffffffffffffffffffffffffffffffffffffff1673ffffffffffffffffffffffffffffffffffffffff163373ffffffffffffffffffffffffffffffffffffffff16145b6112db576040517f08c379a00000000000000000000000000000000000000000000000000000000081526004016112d29061248e565b60405180910390fd5b6003816003015f6101000a81548160ff02191690836005811115611302576113016117ae565b5b0217905550817fb1dee78cef8c6887046d91c59e17f84fbc012c9f7efa49a10cce97e13cc94bf460405160405180910390a25050565b611340611585565b60015f8381526020019081526020015f20604051806101000160405290815f82015f9054906101000a900473ffffffffffffffffffffffffffffffffffffffff1673ffffffffffffffffffffffffffffffffffffffff1673ffffffffffffffffffffffffffffffffffffffff168152602001600182015f9054906101000a900473ffffffffffffffffffffffffffffffffffffffff1673ffffffffffffffffffffffffffffffffffffffff1673ffffffffffffffffffffffffffffffffffffffff16815260200160028201548152602001600382015f9054906101000a900460ff166005811115611434576114336117ae565b5b6005811115611446576114456117ae565b5b815260200160048201805461145a90611d85565b80601f016020809104026020016040519081016040528092919081815260200182805461148690611d85565b80156114d15780601f106114a8576101008083540402835291602001916114d1565b820191905f5260205f20905b8154815290600101906020018083116114b457829003601f168201915b505050505081526020016005820180546114ea90611d85565b80601f016020809104026020016040519081016040528092919081815260200182805461151690611d85565b80156115615780601f1061153857610100808354040283529160200191611561565b820191905f5260205f20905b81548152906001019060200180831161154457829003601f168201915b50505050508152602001600682015481526020016007820154815250509050919050565b6040518061010001604052805f73ffffffffffffffffffffffffffffffffffffffff1681526020015f73ffffffffffffffffffffffffffffffffffffffff1681526020015f81526020015f60058111156115e2576115e16117ae565b5b815260200160608152602001606081526020015f81526020015f81525090565b5f5ffd5b5f5ffd5b5f819050919050565b61161c8161160a565b8114611626575f5ffd5b50565b5f8135905061163781611613565b92915050565b5f73ffffffffffffffffffffffffffffffffffffffff82169050919050565b5f6116668261163d565b9050919050565b6116768161165c565b8114611680575f5ffd5b50565b5f813590506116918161166d565b92915050565b5f5f604083850312156116ad576116ac611602565b5b5f6116ba85828601611629565b92505060206116cb85828601611683565b9150509250929050565b5f81519050919050565b5f82825260208201905092915050565b8281835e5f83830152505050565b5f601f19601f8301169050919050565b5f611717826116d5565b61172181856116df565b93506117318185602086016116ef565b61173a816116fd565b840191505092915050565b5f6020820190508181035f83015261175d818461170d565b905092915050565b5f6020828403121561177a57611779611602565b5b5f61178784828501611629565b91505092915050565b6117998161165c565b82525050565b6117a88161160a565b82525050565b7f4e487b71000000000000000000000000000000000000000000000000000000005f52602160045260245ffd5b600681106117ec576117eb6117ae565b5b50565b5f8190506117fc826117db565b919050565b5f61180b826117ef565b9050919050565b61181b81611801565b82525050565b5f610100820190506118355f83018b611790565b611842602083018a611790565b61184f604083018961179f565b61185c6060830188611812565b818103608083015261186e818761170d565b905081810360a0830152611882818661170d565b905061189160c083018561179f565b61189e60e083018461179f565b9998505050505050505050565b5f819050919050565b5f6118ce6118c96118c48461163d565b6118ab565b61163d565b9050919050565b5f6118df826118b4565b9050919050565b5f6118f0826118d5565b9050919050565b611900816118e6565b82525050565b5f6020820190506119195f8301846118f7565b92915050565b5f6020820190506119325f83018461179f565b92915050565b5f5ffd5b5f5ffd5b5f5ffd5b5f5f83601f84011261195957611958611938565b5b8235905067ffffffffffffffff8111156119765761197561193c565b5b60208301915083600182028301111561199257611991611940565b5b9250929050565b5f5f5f5f5f606086880312156119b2576119b1611602565b5b5f6119bf88828901611629565b955050602086013567ffffffffffffffff8111156119e0576119df611606565b5b6119ec88828901611944565b9450945050604086013567ffffffffffffffff811115611a0f57611a0e611606565b5b611a1b88828901611944565b92509250509295509295909350565b611a338161165c565b82525050565b611a428161160a565b82525050565b611a5181611801565b82525050565b5f82825260208201905092915050565b5f611a71826116d5565b611a7b8185611a57565b9350611a8b8185602086016116ef565b611a94816116fd565b840191505092915050565b5f61010083015f830151611ab55f860182611a2a565b506020830151611ac86020860182611a2a565b506040830151611adb6040860182611a39565b506060830151611aee6060860182611a48565b5060808301518482036080860152611b068282611a67565b91505060a083015184820360a0860152611b208282611a67565b91505060c0830151611b3560c0860182611a39565b5060e0830151611b4860e0860182611a39565b508091505092915050565b5f6020820190508181035f830152611b6b8184611a9f565b905092915050565b7f4a6f62206e6f74206469737075746564000000000000000000000000000000005f82015250565b5f611ba76010836116df565b9150611bb282611b73565b602082019050919050565b5f6020820190508181035f830152611bd481611b9b565b9050919050565b7f57696e6e6572206d757374206265206120706172747920746f20746865206a6f5f8201527f6200000000000000000000000000000000000000000000000000000000000000602082015250565b5f611c356021836116df565b9150611c4082611bdb565b604082019050919050565b5f6020820190508181035f830152611c6281611c29565b9050919050565b5f604082019050611c7c5f830185611790565b611c89602083018461179f565b9392505050565b5f8115159050919050565b611ca481611c90565b8114611cae575f5ffd5b50565b5f81519050611cbf81611c9b565b92915050565b5f60208284031215611cda57611cd9611602565b5b5f611ce784828501611cb1565b91505092915050565b7f55534443207472616e73666572206661696c65640000000000000000000000005f82015250565b5f611d246014836116df565b9150611d2f82611cf0565b602082019050919050565b5f6020820190508181035f830152611d5181611d18565b9050919050565b7f4e487b71000000000000000000000000000000000000000000000000000000005f52602260045260245ffd5b5f6002820490506001821680611d9c57607f821691505b602082108103611daf57611dae611d58565b5b50919050565b7f43616e206f6e6c792063616e63656c206f70656e206a6f6273000000000000005f82015250565b5f611de96019836116df565b9150611df482611db5565b602082019050919050565b5f6020820190508181035f830152611e1681611ddd565b9050919050565b7f4f6e6c7920636c69656e742063616e2063616e63656c000000000000000000005f82015250565b5f611e516016836116df565b9150611e5c82611e1d565b602082019050919050565b5f6020820190508181035f830152611e7e81611e45565b9050919050565b7f4a6f62206e6f7420617661696c61626c650000000000000000000000000000005f82015250565b5f611eb96011836116df565b9150611ec482611e85565b602082019050919050565b5f6020820190508181035f830152611ee681611ead565b9050919050565b7f436c69656e742063616e6e6f7420616363657074206f776e206a6f62000000005f82015250565b5f611f21601c836116df565b9150611f2c82611eed565b602082019050919050565b5f6020820190508181035f830152611f4e81611f15565b9050919050565b7f416d6f756e74206d7573742062652067726561746572207468616e20300000005f82015250565b5f611f89601d836116df565b9150611f9482611f55565b602082019050919050565b5f6020820190508181035f830152611fb681611f7d565b9050919050565b5f606082019050611fd05f830186611790565b611fdd6020830185611790565b611fea604083018461179f565b949350505050565b7f4e487b71000000000000000000000000000000000000000000000000000000005f52601160045260245ffd5b5f6120298261160a565b91507fffffffffffffffffffffffffffffffffffffffffffffffffffffffffffffffff820361205b5761205a611ff2565b5b600182019050919050565b7f4e487b71000000000000000000000000000000000000000000000000000000005f52604160045260245ffd5b5f819050815f5260205f209050919050565b5f6020601f8301049050919050565b5f82821b905092915050565b5f600883026120ef7fffffffffffffffffffffffffffffffffffffffffffffffffffffffffffffffff826120b4565b6120f986836120b4565b95508019841693508086168417925050509392505050565b5f61212b6121266121218461160a565b6118ab565b61160a565b9050919050565b5f819050919050565b61214483612111565b61215861215082612132565b8484546120c0565b825550505050565b5f5f905090565b61216f612160565b61217a81848461213b565b505050565b5f5b828110156121a0576121955f828401612167565b600181019050612181565b505050565b601f8211156121f357828211156121f2576121bf81612093565b6121c8836120a5565b6121d1856120a5565b60208610156121de575f90505b8083016121ed8284038261217f565b505050505b5b505050565b5f82821c905092915050565b5f6122135f19846008026121f8565b1980831691505092915050565b5f61222b8383612204565b9150826002028217905092915050565b612244826116d5565b67ffffffffffffffff81111561225d5761225c612066565b5b6122678254611d85565b6122728282856121a5565b5f60209050601f8311600181146122a3575f8415612291578287015190505b61229b8582612220565b865550612302565b601f1984166122b186612093565b5f5b828110156122d8578489015182556001820191506020850194506020810190506122b3565b868310156122f557848901516122f1601f891682612204565b8355505b6001600288020188555050505b505050505050565b828183375f83830152505050565b5f61232383856116df565b935061233083858461230a565b612339836116fd565b840190509392505050565b5f6040820190506123575f83018661179f565b818103602083015261236a818486612318565b9050949350505050565b7f4a6f62206e6f74206163746976650000000000000000000000000000000000005f82015250565b5f6123a8600e836116df565b91506123b382612374565b602082019050919050565b5f6020820190508181035f8301526123d58161239c565b9050919050565b7f4f6e6c7920636c69656e742063616e2072656c65617365207061796d656e74005f82015250565b5f612410601f836116df565b915061241b826123dc565b602082019050919050565b5f6020820190508181035f83015261243d81612404565b9050919050565b7f4e6f74206120706172747920746f2074686973206a6f620000000000000000005f82015250565b5f6124786017836116df565b915061248382612444565b602082019050919050565b5f6020820190508181035f8301526124a58161246c565b905091905056fea26469706673582212209e8a2947fc82a21709606be094cba55778da868e4c5c6819a249b0db7b995a7b64736f6c63430008210033","linkReferences":{}},"methodIdentifiers":{"BUILDER_CODE()":"12550e1e","acceptJob(uint256)":"63b2f3c9","cancelJob(uint256)":"1dffa3dc","createJob(uint256,string,string)":"795c8db0","getJob(uint256)":"bf22c457","jobCount()":"4c5d8a0f","jobs(uint256)":"180aedf3","raiseDispute(uint256)":"a5c1674e","releasePayment(uint256)":"88685cd9","resolveDispute(uint256,address)":"0e33599d","usdc()":"3e413bee"},"id":17}